{
  "contractName": "NFTCosmos",
  "abi": [
    {
      "inputs": [],
      "stateMutability": "nonpayable",
      "type": "constructor"
    },
    {
      "anonymous": false,
      "inputs": [
        {
          "indexed": true,
          "internalType": "address",
          "name": "owner",
          "type": "address"
        },
        {
          "indexed": true,
          "internalType": "address",
          "name": "approved",
          "type": "address"
        },
        {
          "indexed": true,
          "internalType": "uint256",
          "name": "tokenId",
          "type": "uint256"
        }
      ],
      "name": "Approval",
      "type": "event"
    },
    {
      "anonymous": false,
      "inputs": [
        {
          "indexed": true,
          "internalType": "address",
          "name": "owner",
          "type": "address"
        },
        {
          "indexed": true,
          "internalType": "address",
          "name": "operator",
          "type": "address"
        },
        {
          "indexed": false,
          "internalType": "bool",
          "name": "approved",
          "type": "bool"
        }
      ],
      "name": "ApprovalForAll",
      "type": "event"
    },
    {
      "anonymous": false,
      "inputs": [
        {
          "indexed": true,
          "internalType": "address",
          "name": "previousOwner",
          "type": "address"
        },
        {
          "indexed": true,
          "internalType": "address",
          "name": "newOwner",
          "type": "address"
        }
      ],
      "name": "OwnershipTransferred",
      "type": "event"
    },
    {
      "anonymous": false,
      "inputs": [
        {
          "indexed": false,
          "internalType": "address",
          "name": "account",
          "type": "address"
        }
      ],
      "name": "Paused",
      "type": "event"
    },
    {
      "anonymous": false,
      "inputs": [
        {
          "indexed": true,
          "internalType": "address",
          "name": "from",
          "type": "address"
        },
        {
          "indexed": true,
          "internalType": "address",
          "name": "to",
          "type": "address"
        },
        {
          "indexed": true,
          "internalType": "uint256",
          "name": "tokenId",
          "type": "uint256"
        }
      ],
      "name": "Transfer",
      "type": "event"
    },
    {
      "anonymous": false,
      "inputs": [
        {
          "indexed": false,
          "internalType": "address",
          "name": "account",
          "type": "address"
        }
      ],
      "name": "Unpaused",
      "type": "event"
    },
    {
      "inputs": [
        {
          "internalType": "address",
          "name": "to",
          "type": "address"
        },
        {
          "internalType": "uint256",
          "name": "tokenId",
          "type": "uint256"
        }
      ],
      "name": "approve",
      "outputs": [],
      "stateMutability": "nonpayable",
      "type": "function"
    },
    {
      "inputs": [
        {
          "internalType": "address",
          "name": "owner",
          "type": "address"
        }
      ],
      "name": "balanceOf",
      "outputs": [
        {
          "internalType": "uint256",
          "name": "",
          "type": "uint256"
        }
      ],
      "stateMutability": "view",
      "type": "function"
    },
    {
      "inputs": [
        {
          "internalType": "uint256",
          "name": "tokenId",
          "type": "uint256"
        }
      ],
      "name": "burn",
      "outputs": [],
      "stateMutability": "nonpayable",
      "type": "function"
    },
    {
      "inputs": [
        {
          "internalType": "uint256",
          "name": "tokenId",
          "type": "uint256"
        }
      ],
      "name": "getApproved",
      "outputs": [
        {
          "internalType": "address",
          "name": "",
          "type": "address"
        }
      ],
      "stateMutability": "view",
      "type": "function"
    },
    {
      "inputs": [
        {
          "internalType": "address",
          "name": "owner",
          "type": "address"
        },
        {
          "internalType": "address",
          "name": "operator",
          "type": "address"
        }
      ],
      "name": "isApprovedForAll",
      "outputs": [
        {
          "internalType": "bool",
          "name": "",
          "type": "bool"
        }
      ],
      "stateMutability": "view",
      "type": "function"
    },
    {
      "inputs": [],
      "name": "name",
      "outputs": [
        {
          "internalType": "string",
          "name": "",
          "type": "string"
        }
      ],
      "stateMutability": "view",
      "type": "function"
    },
    {
      "inputs": [],
      "name": "owner",
      "outputs": [
        {
          "internalType": "address",
          "name": "",
          "type": "address"
        }
      ],
      "stateMutability": "view",
      "type": "function"
    },
    {
      "inputs": [
        {
          "internalType": "uint256",
          "name": "tokenId",
          "type": "uint256"
        }
      ],
      "name": "ownerOf",
      "outputs": [
        {
          "internalType": "address",
          "name": "",
          "type": "address"
        }
      ],
      "stateMutability": "view",
      "type": "function"
    },
    {
      "inputs": [],
      "name": "paused",
      "outputs": [
        {
          "internalType": "bool",
          "name": "",
          "type": "bool"
        }
      ],
      "stateMutability": "view",
      "type": "function"
    },
    {
      "inputs": [],
      "name": "renounceOwnership",
      "outputs": [],
      "stateMutability": "nonpayable",
      "type": "function"
    },
    {
      "inputs": [
        {
          "internalType": "address",
          "name": "from",
          "type": "address"
        },
        {
          "internalType": "address",
          "name": "to",
          "type": "address"
        },
        {
          "internalType": "uint256",
          "name": "tokenId",
          "type": "uint256"
        }
      ],
      "name": "safeTransferFrom",
      "outputs": [],
      "stateMutability": "nonpayable",
      "type": "function"
    },
    {
      "inputs": [
        {
          "internalType": "address",
          "name": "from",
          "type": "address"
        },
        {
          "internalType": "address",
          "name": "to",
          "type": "address"
        },
        {
          "internalType": "uint256",
          "name": "tokenId",
          "type": "uint256"
        },
        {
          "internalType": "bytes",
          "name": "_data",
          "type": "bytes"
        }
      ],
      "name": "safeTransferFrom",
      "outputs": [],
      "stateMutability": "nonpayable",
      "type": "function"
    },
    {
      "inputs": [
        {
          "internalType": "address",
          "name": "operator",
          "type": "address"
        },
        {
          "internalType": "bool",
          "name": "approved",
          "type": "bool"
        }
      ],
      "name": "setApprovalForAll",
      "outputs": [],
      "stateMutability": "nonpayable",
      "type": "function"
    },
    {
      "inputs": [],
      "name": "symbol",
      "outputs": [
        {
          "internalType": "string",
          "name": "",
          "type": "string"
        }
      ],
      "stateMutability": "view",
      "type": "function"
    },
    {
      "inputs": [
        {
          "internalType": "uint256",
          "name": "index",
          "type": "uint256"
        }
      ],
      "name": "tokenByIndex",
      "outputs": [
        {
          "internalType": "uint256",
          "name": "",
          "type": "uint256"
        }
      ],
      "stateMutability": "view",
      "type": "function"
    },
    {
      "inputs": [
        {
          "internalType": "address",
          "name": "owner",
          "type": "address"
        },
        {
          "internalType": "uint256",
          "name": "index",
          "type": "uint256"
        }
      ],
      "name": "tokenOfOwnerByIndex",
      "outputs": [
        {
          "internalType": "uint256",
          "name": "",
          "type": "uint256"
        }
      ],
      "stateMutability": "view",
      "type": "function"
    },
    {
      "inputs": [],
      "name": "totalSupply",
      "outputs": [
        {
          "internalType": "uint256",
          "name": "",
          "type": "uint256"
        }
      ],
      "stateMutability": "view",
      "type": "function"
    },
    {
      "inputs": [
        {
          "internalType": "address",
          "name": "from",
          "type": "address"
        },
        {
          "internalType": "address",
          "name": "to",
          "type": "address"
        },
        {
          "internalType": "uint256",
          "name": "tokenId",
          "type": "uint256"
        }
      ],
      "name": "transferFrom",
      "outputs": [],
      "stateMutability": "nonpayable",
      "type": "function"
    },
    {
      "inputs": [
        {
          "internalType": "address",
          "name": "newOwner",
          "type": "address"
        }
      ],
      "name": "transferOwnership",
      "outputs": [],
      "stateMutability": "nonpayable",
      "type": "function"
    },
    {
      "inputs": [],
      "name": "pause",
      "outputs": [],
      "stateMutability": "nonpayable",
      "type": "function"
    },
    {
      "inputs": [],
      "name": "unpause",
      "outputs": [],
      "stateMutability": "nonpayable",
      "type": "function"
    },
    {
      "inputs": [
        {
          "internalType": "address",
          "name": "to",
          "type": "address"
        },
        {
          "internalType": "uint256",
          "name": "tokenId",
          "type": "uint256"
        },
        {
          "internalType": "string",
          "name": "uri",
          "type": "string"
        },
        {
          "internalType": "uint8",
          "name": "royaltyType",
          "type": "uint8"
        }
      ],
      "name": "safeMint",
      "outputs": [],
      "stateMutability": "nonpayable",
      "type": "function"
    },
    {
      "inputs": [
        {
          "internalType": "uint256",
          "name": "tokenId",
          "type": "uint256"
        }
      ],
      "name": "tokenURI",
      "outputs": [
        {
          "internalType": "string",
          "name": "",
          "type": "string"
        }
      ],
      "stateMutability": "view",
      "type": "function"
    },
    {
      "inputs": [
        {
          "internalType": "bytes4",
          "name": "interfaceId",
          "type": "bytes4"
        }
      ],
      "name": "supportsInterface",
      "outputs": [
        {
          "internalType": "bool",
          "name": "",
          "type": "bool"
        }
      ],
      "stateMutability": "view",
      "type": "function"
    },
    {
      "inputs": [],
      "name": "getTokenUris",
      "outputs": [
        {
          "components": [
            {
              "internalType": "uint256",
              "name": "tokenId",
              "type": "uint256"
            },
            {
              "internalType": "string",
              "name": "tokenUri",
              "type": "string"
            },
            {
              "internalType": "uint8",
              "name": "royaltyType",
              "type": "uint8"
            }
          ],
          "internalType": "struct NFTCosmos.CosmoToken[]",
          "name": "",
          "type": "tuple[]"
        }
      ],
      "stateMutability": "view",
      "type": "function"
    }
  ],
  "bytecode": "0x60806040523480156200001157600080fd5b506040518060400160405280600981526020017f4e4654436f736d6f7300000000000000000000000000000000000000000000008152506040518060400160405280600481526020017f4e434f5300000000000000000000000000000000000000000000000000000000815250816000908051906020019062000096929190620001c1565b508060019080519060200190620000af929190620001c1565b5050506000600b60006101000a81548160ff021916908315150217905550620000ed620000e1620000f360201b60201c565b620000fb60201b60201c565b620002d6565b600033905090565b6000600b60019054906101000a900473ffffffffffffffffffffffffffffffffffffffff16905081600b60016101000a81548173ffffffffffffffffffffffffffffffffffffffff021916908373ffffffffffffffffffffffffffffffffffffffff1602179055508173ffffffffffffffffffffffffffffffffffffffff168173ffffffffffffffffffffffffffffffffffffffff167f8be0079c531659141344cd1fd0a4f28419497f9722a3daafe3b4186f6b6457e060405160405180910390a35050565b828054620001cf90620002a0565b90600052602060002090601f016020900481019282620001f357600085556200023f565b82601f106200020e57805160ff19168380011785556200023f565b828001600101855582156200023f579182015b828111156200023e57825182559160200191906001019062000221565b5b5090506200024e919062000252565b5090565b5b808211156200026d57600081600090555060010162000253565b5090565b7f4e487b7100000000000000000000000000000000000000000000000000000000600052602260045260246000fd5b60006002820490506001821680620002b957607f821691505b60208210811415620002d057620002cf62000271565b5b50919050565b61426580620002e66000396000f3fe608060405234801561001057600080fd5b50600436106101735760003560e01c80635c975abb116100de57806395d89b4111610097578063c87b56dd11610071578063c87b56dd14610410578063e985e9c514610440578063eb612dfb14610470578063f2fde38b1461048e57610173565b806395d89b41146103ba578063a22cb465146103d8578063b88d4fde146103f457610173565b80635c975abb1461030a5780636352211e1461032857806370a0823114610358578063715018a6146103885780638456cb59146103925780638da5cb5b1461039c57610173565b80632f745c59116101305780632f745c591461024c5780633f4ba83a1461027c57806342842e0e1461028657806342966c68146102a25780634f6ccce7146102be5780635c5109a1146102ee57610173565b806301ffc9a71461017857806306fdde03146101a8578063081812fc146101c6578063095ea7b3146101f657806318160ddd1461021257806323b872dd14610230575b600080fd5b610192600480360381019061018d9190612a10565b6104aa565b60405161019f9190612a58565b60405180910390f35b6101b06104bc565b6040516101bd9190612b0c565b60405180910390f35b6101e060048036038101906101db9190612b64565b61054e565b6040516101ed9190612bd2565b60405180910390f35b610210600480360381019061020b9190612c19565b6105d3565b005b61021a6106eb565b6040516102279190612c68565b60405180910390f35b61024a60048036038101906102459190612c83565b6106f8565b005b61026660048036038101906102619190612c19565b610758565b6040516102739190612c68565b60405180910390f35b6102846107fd565b005b6102a0600480360381019061029b9190612c83565b610883565b005b6102bc60048036038101906102b79190612b64565b6108a3565b005b6102d860048036038101906102d39190612b64565b6108ff565b6040516102e59190612c68565b60405180910390f35b61030860048036038101906103039190612e44565b610970565b005b610312610a99565b60405161031f9190612a58565b60405180910390f35b610342600480360381019061033d9190612b64565b610ab0565b60405161034f9190612bd2565b60405180910390f35b610372600480360381019061036d9190612ec7565b610b62565b60405161037f9190612c68565b60405180910390f35b610390610c1a565b005b61039a610ca2565b005b6103a4610d28565b6040516103b19190612bd2565b60405180910390f35b6103c2610d52565b6040516103cf9190612b0c565b60405180910390f35b6103f260048036038101906103ed9190612f20565b610de4565b005b61040e60048036038101906104099190613001565b610dfa565b005b61042a60048036038101906104259190612b64565b610e5c565b6040516104379190612b0c565b60405180910390f35b61045a60048036038101906104559190613084565b610e6e565b6040516104679190612a58565b60405180910390f35b610478610f02565b604051610485919061323e565b60405180910390f35b6104a860048036038101906104a39190612ec7565b61101a565b005b60006104b582611112565b9050919050565b6060600080546104cb9061328f565b80601f01602080910402602001604051908101604052809291908181526020018280546104f79061328f565b80156105445780601f1061051957610100808354040283529160200191610544565b820191906000526020600020905b81548152906001019060200180831161052757829003601f168201915b5050505050905090565b60006105598261118c565b610598576040517f08c379a000000000000000000000000000000000000000000000000000000000815260040161058f90613333565b60405180910390fd5b6004600083815260200190815260200160002060009054906101000a900473ffffffffffffffffffffffffffffffffffffffff169050919050565b60006105de82610ab0565b90508073ffffffffffffffffffffffffffffffffffffffff168373ffffffffffffffffffffffffffffffffffffffff16141561064f576040517f08c379a0000000000000000000000000000000000000000000000000000000008152600401610646906133c5565b60405180910390fd5b8073ffffffffffffffffffffffffffffffffffffffff1661066e6111f8565b73ffffffffffffffffffffffffffffffffffffffff16148061069d575061069c816106976111f8565b610e6e565b5b6106dc576040517f08c379a00000000000000000000000000000000000000000000000000000000081526004016106d390613457565b60405180910390fd5b6106e68383611200565b505050565b6000600880549050905090565b6107096107036111f8565b826112b9565b610748576040517f08c379a000000000000000000000000000000000000000000000000000000000815260040161073f906134e9565b60405180910390fd5b610753838383611397565b505050565b600061076383610b62565b82106107a4576040517f08c379a000000000000000000000000000000000000000000000000000000000815260040161079b9061357b565b60405180910390fd5b600660008473ffffffffffffffffffffffffffffffffffffffff1673ffffffffffffffffffffffffffffffffffffffff168152602001908152602001600020600083815260200190815260200160002054905092915050565b6108056111f8565b73ffffffffffffffffffffffffffffffffffffffff16610823610d28565b73ffffffffffffffffffffffffffffffffffffffff1614610879576040517f08c379a0000000000000000000000000000000000000000000000000000000008152600401610870906135e7565b60405180910390fd5b6108816115f3565b565b61089e83838360405180602001604052806000815250610dfa565b505050565b6108b46108ae6111f8565b826112b9565b6108f3576040517f08c379a00000000000000000000000000000000000000000000000000000000081526004016108ea90613679565b60405180910390fd5b6108fc81611695565b50565b60006109096106eb565b821061094a576040517f08c379a00000000000000000000000000000000000000000000000000000000081526004016109419061370b565b60405180910390fd5b6008828154811061095e5761095d61372b565b5b90600052602060002001549050919050565b6109786111f8565b73ffffffffffffffffffffffffffffffffffffffff16610996610d28565b73ffffffffffffffffffffffffffffffffffffffff16146109ec576040517f08c379a00000000000000000000000000000000000000000000000000000000081526004016109e3906135e7565b60405180910390fd5b6109f684846116a1565b610a0083836116bf565b600c60405180606001604052808581526020018481526020018360ff168152509080600181540180825580915050600190039060005260206000209060030201600090919091909150600082015181600001556020820151816001019080519060200190610a6f9291906128c1565b5060408201518160020160006101000a81548160ff021916908360ff160217905550505050505050565b6000600b60009054906101000a900460ff16905090565b6000806002600084815260200190815260200160002060009054906101000a900473ffffffffffffffffffffffffffffffffffffffff169050600073ffffffffffffffffffffffffffffffffffffffff168173ffffffffffffffffffffffffffffffffffffffff161415610b59576040517f08c379a0000000000000000000000000000000000000000000000000000000008152600401610b50906137cc565b60405180910390fd5b80915050919050565b60008073ffffffffffffffffffffffffffffffffffffffff168273ffffffffffffffffffffffffffffffffffffffff161415610bd3576040517f08c379a0000000000000000000000000000000000000000000000000000000008152600401610bca9061385e565b60405180910390fd5b600360008373ffffffffffffffffffffffffffffffffffffffff1673ffffffffffffffffffffffffffffffffffffffff168152602001908152602001600020549050919050565b610c226111f8565b73ffffffffffffffffffffffffffffffffffffffff16610c40610d28565b73ffffffffffffffffffffffffffffffffffffffff1614610c96576040517f08c379a0000000000000000000000000000000000000000000000000000000008152600401610c8d906135e7565b60405180910390fd5b610ca06000611733565b565b610caa6111f8565b73ffffffffffffffffffffffffffffffffffffffff16610cc8610d28565b73ffffffffffffffffffffffffffffffffffffffff1614610d1e576040517f08c379a0000000000000000000000000000000000000000000000000000000008152600401610d15906135e7565b60405180910390fd5b610d266117f9565b565b6000600b60019054906101000a900473ffffffffffffffffffffffffffffffffffffffff16905090565b606060018054610d619061328f565b80601f0160208091040260200160405190810160405280929190818152602001828054610d8d9061328f565b8015610dda5780601f10610daf57610100808354040283529160200191610dda565b820191906000526020600020905b815481529060010190602001808311610dbd57829003601f168201915b5050505050905090565b610df6610def6111f8565b838361189c565b5050565b610e0b610e056111f8565b836112b9565b610e4a576040517f08c379a0000000000000000000000000000000000000000000000000000000008152600401610e41906134e9565b60405180910390fd5b610e5684848484611a09565b50505050565b6060610e6782611a65565b9050919050565b6000600560008473ffffffffffffffffffffffffffffffffffffffff1673ffffffffffffffffffffffffffffffffffffffff16815260200190815260200160002060008373ffffffffffffffffffffffffffffffffffffffff1673ffffffffffffffffffffffffffffffffffffffff16815260200190815260200160002060009054906101000a900460ff16905092915050565b6060600c805480602002602001604051908101604052809291908181526020016000905b82821015611011578382906000526020600020906003020160405180606001604052908160008201548152602001600182018054610f639061328f565b80601f0160208091040260200160405190810160405280929190818152602001828054610f8f9061328f565b8015610fdc5780601f10610fb157610100808354040283529160200191610fdc565b820191906000526020600020905b815481529060010190602001808311610fbf57829003601f168201915b505050505081526020016002820160009054906101000a900460ff1660ff1660ff168152505081526020019060010190610f26565b50505050905090565b6110226111f8565b73ffffffffffffffffffffffffffffffffffffffff16611040610d28565b73ffffffffffffffffffffffffffffffffffffffff1614611096576040517f08c379a000000000000000000000000000000000000000000000000000000000815260040161108d906135e7565b60405180910390fd5b600073ffffffffffffffffffffffffffffffffffffffff168173ffffffffffffffffffffffffffffffffffffffff161415611106576040517f08c379a00000000000000000000000000000000000000000000000000000000081526004016110fd906138f0565b60405180910390fd5b61110f81611733565b50565b60007f780e9d63000000000000000000000000000000000000000000000000000000007bffffffffffffffffffffffffffffffffffffffffffffffffffffffff1916827bffffffffffffffffffffffffffffffffffffffffffffffffffffffff19161480611185575061118482611bb7565b5b9050919050565b60008073ffffffffffffffffffffffffffffffffffffffff166002600084815260200190815260200160002060009054906101000a900473ffffffffffffffffffffffffffffffffffffffff1673ffffffffffffffffffffffffffffffffffffffff1614159050919050565b600033905090565b816004600083815260200190815260200160002060006101000a81548173ffffffffffffffffffffffffffffffffffffffff021916908373ffffffffffffffffffffffffffffffffffffffff160217905550808273ffffffffffffffffffffffffffffffffffffffff1661127383610ab0565b73ffffffffffffffffffffffffffffffffffffffff167f8c5be1e5ebec7d5bd14f71427d1e84f3dd0314c0f7b2291e5b200ac8c7c3b92560405160405180910390a45050565b60006112c48261118c565b611303576040517f08c379a00000000000000000000000000000000000000000000000000000000081526004016112fa90613982565b60405180910390fd5b600061130e83610ab0565b90508073ffffffffffffffffffffffffffffffffffffffff168473ffffffffffffffffffffffffffffffffffffffff16148061137d57508373ffffffffffffffffffffffffffffffffffffffff166113658461054e565b73ffffffffffffffffffffffffffffffffffffffff16145b8061138e575061138d8185610e6e565b5b91505092915050565b8273ffffffffffffffffffffffffffffffffffffffff166113b782610ab0565b73ffffffffffffffffffffffffffffffffffffffff161461140d576040517f08c379a000000000000000000000000000000000000000000000000000000000815260040161140490613a14565b60405180910390fd5b600073ffffffffffffffffffffffffffffffffffffffff168273ffffffffffffffffffffffffffffffffffffffff16141561147d576040517f08c379a000000000000000000000000000000000000000000000000000000000815260040161147490613aa6565b60405180910390fd5b611488838383611c99565b611493600082611200565b6001600360008573ffffffffffffffffffffffffffffffffffffffff1673ffffffffffffffffffffffffffffffffffffffff16815260200190815260200160002060008282546114e39190613af5565b925050819055506001600360008473ffffffffffffffffffffffffffffffffffffffff1673ffffffffffffffffffffffffffffffffffffffff168152602001908152602001600020600082825461153a9190613b29565b92505081905550816002600083815260200190815260200160002060006101000a81548173ffffffffffffffffffffffffffffffffffffffff021916908373ffffffffffffffffffffffffffffffffffffffff160217905550808273ffffffffffffffffffffffffffffffffffffffff168473ffffffffffffffffffffffffffffffffffffffff167fddf252ad1be2c89b69c2b068fc378daa952ba7f163c4a11628f55a4df523b3ef60405160405180910390a4505050565b6115fb610a99565b61163a576040517f08c379a000000000000000000000000000000000000000000000000000000000815260040161163190613bcb565b60405180910390fd5b6000600b60006101000a81548160ff0219169083151502179055507f5db9ee0a495bf2e6ff9c91a7834c1ba4fdd244a5e8aa4e537bd38aeae4b073aa61167e6111f8565b60405161168b9190612bd2565b60405180910390a1565b61169e81611cf1565b50565b6116bb828260405180602001604052806000815250611d44565b5050565b6116c88261118c565b611707576040517f08c379a00000000000000000000000000000000000000000000000000000000081526004016116fe90613c5d565b60405180910390fd5b80600a6000848152602001908152602001600020908051906020019061172e9291906128c1565b505050565b6000600b60019054906101000a900473ffffffffffffffffffffffffffffffffffffffff16905081600b60016101000a81548173ffffffffffffffffffffffffffffffffffffffff021916908373ffffffffffffffffffffffffffffffffffffffff1602179055508173ffffffffffffffffffffffffffffffffffffffff168173ffffffffffffffffffffffffffffffffffffffff167f8be0079c531659141344cd1fd0a4f28419497f9722a3daafe3b4186f6b6457e060405160405180910390a35050565b611801610a99565b15611841576040517f08c379a000000000000000000000000000000000000000000000000000000000815260040161183890613cc9565b60405180910390fd5b6001600b60006101000a81548160ff0219169083151502179055507f62e78cea01bee320cd4e420270b5ea74000d11b0c9f74754ebdbfc544b05a2586118856111f8565b6040516118929190612bd2565b60405180910390a1565b8173ffffffffffffffffffffffffffffffffffffffff168373ffffffffffffffffffffffffffffffffffffffff16141561190b576040517f08c379a000000000000000000000000000000000000000000000000000000000815260040161190290613d35565b60405180910390fd5b80600560008573ffffffffffffffffffffffffffffffffffffffff1673ffffffffffffffffffffffffffffffffffffffff16815260200190815260200160002060008473ffffffffffffffffffffffffffffffffffffffff1673ffffffffffffffffffffffffffffffffffffffff16815260200190815260200160002060006101000a81548160ff0219169083151502179055508173ffffffffffffffffffffffffffffffffffffffff168373ffffffffffffffffffffffffffffffffffffffff167f17307eab39ab6107e8899845ad3d59bd9653f200f220920489ca2b5937696c31836040516119fc9190612a58565b60405180910390a3505050565b611a14848484611397565b611a2084848484611d9f565b611a5f576040517f08c379a0000000000000000000000000000000000000000000000000000000008152600401611a5690613dc7565b60405180910390fd5b50505050565b6060611a708261118c565b611aaf576040517f08c379a0000000000000000000000000000000000000000000000000000000008152600401611aa690613e59565b60405180910390fd5b6000600a60008481526020019081526020016000208054611acf9061328f565b80601f0160208091040260200160405190810160405280929190818152602001828054611afb9061328f565b8015611b485780601f10611b1d57610100808354040283529160200191611b48565b820191906000526020600020905b815481529060010190602001808311611b2b57829003601f168201915b505050505090506000611b59611f27565b9050600081511415611b6f578192505050611bb2565b600082511115611ba4578082604051602001611b8c929190613eb5565b60405160208183030381529060405292505050611bb2565b611bad84611f3e565b925050505b919050565b60007f80ac58cd000000000000000000000000000000000000000000000000000000007bffffffffffffffffffffffffffffffffffffffffffffffffffffffff1916827bffffffffffffffffffffffffffffffffffffffffffffffffffffffff19161480611c8257507f5b5e139f000000000000000000000000000000000000000000000000000000007bffffffffffffffffffffffffffffffffffffffffffffffffffffffff1916827bffffffffffffffffffffffffffffffffffffffffffffffffffffffff1916145b80611c925750611c9182611fe5565b5b9050919050565b611ca1610a99565b15611ce1576040517f08c379a0000000000000000000000000000000000000000000000000000000008152600401611cd890613cc9565b60405180910390fd5b611cec83838361204f565b505050565b611cfa81612163565b6000600a60008381526020019081526020016000208054611d1a9061328f565b905014611d4157600a60008281526020019081526020016000206000611d409190612947565b5b50565b611d4e8383612274565b611d5b6000848484611d9f565b611d9a576040517f08c379a0000000000000000000000000000000000000000000000000000000008152600401611d9190613dc7565b60405180910390fd5b505050565b6000611dc08473ffffffffffffffffffffffffffffffffffffffff16612442565b15611f1a578373ffffffffffffffffffffffffffffffffffffffff1663150b7a02611de96111f8565b8786866040518563ffffffff1660e01b8152600401611e0b9493929190613f2e565b6020604051808303816000875af1925050508015611e4757506040513d601f19601f82011682018060405250810190611e449190613f8f565b60015b611eca573d8060008114611e77576040519150601f19603f3d011682016040523d82523d6000602084013e611e7c565b606091505b50600081511415611ec2576040517f08c379a0000000000000000000000000000000000000000000000000000000008152600401611eb990613dc7565b60405180910390fd5b805181602001fd5b63150b7a0260e01b7bffffffffffffffffffffffffffffffffffffffffffffffffffffffff1916817bffffffffffffffffffffffffffffffffffffffffffffffffffffffff191614915050611f1f565b600190505b949350505050565b606060405180602001604052806000815250905090565b6060611f498261118c565b611f88576040517f08c379a0000000000000000000000000000000000000000000000000000000008152600401611f7f9061402e565b60405180910390fd5b6000611f92611f27565b90506000815111611fb25760405180602001604052806000815250611fdd565b80611fbc84612455565b604051602001611fcd929190613eb5565b6040516020818303038152906040525b915050919050565b60007f01ffc9a7000000000000000000000000000000000000000000000000000000007bffffffffffffffffffffffffffffffffffffffffffffffffffffffff1916827bffffffffffffffffffffffffffffffffffffffffffffffffffffffff1916149050919050565b61205a8383836125b6565b600073ffffffffffffffffffffffffffffffffffffffff168373ffffffffffffffffffffffffffffffffffffffff16141561209d57612098816125bb565b6120dc565b8173ffffffffffffffffffffffffffffffffffffffff168373ffffffffffffffffffffffffffffffffffffffff16146120db576120da8382612604565b5b5b600073ffffffffffffffffffffffffffffffffffffffff168273ffffffffffffffffffffffffffffffffffffffff16141561211f5761211a81612771565b61215e565b8273ffffffffffffffffffffffffffffffffffffffff168273ffffffffffffffffffffffffffffffffffffffff161461215d5761215c8282612842565b5b5b505050565b600061216e82610ab0565b905061217c81600084611c99565b612187600083611200565b6001600360008373ffffffffffffffffffffffffffffffffffffffff1673ffffffffffffffffffffffffffffffffffffffff16815260200190815260200160002060008282546121d79190613af5565b925050819055506002600083815260200190815260200160002060006101000a81549073ffffffffffffffffffffffffffffffffffffffff021916905581600073ffffffffffffffffffffffffffffffffffffffff168273ffffffffffffffffffffffffffffffffffffffff167fddf252ad1be2c89b69c2b068fc378daa952ba7f163c4a11628f55a4df523b3ef60405160405180910390a45050565b600073ffffffffffffffffffffffffffffffffffffffff168273ffffffffffffffffffffffffffffffffffffffff1614156122e4576040517f08c379a00000000000000000000000000000000000000000000000000000000081526004016122db9061409a565b60405180910390fd5b6122ed8161118c565b1561232d576040517f08c379a000000000000000000000000000000000000000000000000000000000815260040161232490614106565b60405180910390fd5b61233960008383611c99565b6001600360008473ffffffffffffffffffffffffffffffffffffffff1673ffffffffffffffffffffffffffffffffffffffff16815260200190815260200160002060008282546123899190613b29565b92505081905550816002600083815260200190815260200160002060006101000a81548173ffffffffffffffffffffffffffffffffffffffff021916908373ffffffffffffffffffffffffffffffffffffffff160217905550808273ffffffffffffffffffffffffffffffffffffffff16600073ffffffffffffffffffffffffffffffffffffffff167fddf252ad1be2c89b69c2b068fc378daa952ba7f163c4a11628f55a4df523b3ef60405160405180910390a45050565b600080823b905060008111915050919050565b6060600082141561249d576040518060400160405280600181526020017f300000000000000000000000000000000000000000000000000000000000000081525090506125b1565b600082905060005b600082146124cf5780806124b890614126565b915050600a826124c8919061419e565b91506124a5565b60008167ffffffffffffffff8111156124eb576124ea612ce0565b5b6040519080825280601f01601f19166020018201604052801561251d5781602001600182028036833780820191505090505b5090505b600085146125aa576001826125369190613af5565b9150600a8561254591906141cf565b60306125519190613b29565b60f81b8183815181106125675761256661372b565b5b60200101907effffffffffffffffffffffffffffffffffffffffffffffffffffffffffffff1916908160001a905350600a856125a3919061419e565b9450612521565b8093505050505b919050565b505050565b6008805490506009600083815260200190815260200160002081905550600881908060018154018082558091505060019003906000526020600020016000909190919091505550565b6000600161261184610b62565b61261b9190613af5565b9050600060076000848152602001908152602001600020549050818114612700576000600660008673ffffffffffffffffffffffffffffffffffffffff1673ffffffffffffffffffffffffffffffffffffffff168152602001908152602001600020600084815260200190815260200160002054905080600660008773ffffffffffffffffffffffffffffffffffffffff1673ffffffffffffffffffffffffffffffffffffffff168152602001908152602001600020600084815260200190815260200160002081905550816007600083815260200190815260200160002081905550505b6007600084815260200190815260200160002060009055600660008573ffffffffffffffffffffffffffffffffffffffff1673ffffffffffffffffffffffffffffffffffffffff16815260200190815260200160002060008381526020019081526020016000206000905550505050565b600060016008805490506127859190613af5565b90506000600960008481526020019081526020016000205490506000600883815481106127b5576127b461372b565b5b9060005260206000200154905080600883815481106127d7576127d661372b565b5b90600052602060002001819055508160096000838152602001908152602001600020819055506009600085815260200190815260200160002060009055600880548061282657612825614200565b5b6001900381819060005260206000200160009055905550505050565b600061284d83610b62565b905081600660008573ffffffffffffffffffffffffffffffffffffffff1673ffffffffffffffffffffffffffffffffffffffff168152602001908152602001600020600083815260200190815260200160002081905550806007600084815260200190815260200160002081905550505050565b8280546128cd9061328f565b90600052602060002090601f0160209004810192826128ef5760008555612936565b82601f1061290857805160ff1916838001178555612936565b82800160010185558215612936579182015b8281111561293557825182559160200191906001019061291a565b5b5090506129439190612987565b5090565b5080546129539061328f565b6000825580601f106129655750612984565b601f0160209004906000526020600020908101906129839190612987565b5b50565b5b808211156129a0576000816000905550600101612988565b5090565b6000604051905090565b600080fd5b600080fd5b60007fffffffff0000000000000000000000000000000000000000000000000000000082169050919050565b6129ed816129b8565b81146129f857600080fd5b50565b600081359050612a0a816129e4565b92915050565b600060208284031215612a2657612a256129ae565b5b6000612a34848285016129fb565b91505092915050565b60008115159050919050565b612a5281612a3d565b82525050565b6000602082019050612a6d6000830184612a49565b92915050565b600081519050919050565b600082825260208201905092915050565b60005b83811015612aad578082015181840152602081019050612a92565b83811115612abc576000848401525b50505050565b6000601f19601f8301169050919050565b6000612ade82612a73565b612ae88185612a7e565b9350612af8818560208601612a8f565b612b0181612ac2565b840191505092915050565b60006020820190508181036000830152612b268184612ad3565b905092915050565b6000819050919050565b612b4181612b2e565b8114612b4c57600080fd5b50565b600081359050612b5e81612b38565b92915050565b600060208284031215612b7a57612b796129ae565b5b6000612b8884828501612b4f565b91505092915050565b600073ffffffffffffffffffffffffffffffffffffffff82169050919050565b6000612bbc82612b91565b9050919050565b612bcc81612bb1565b82525050565b6000602082019050612be76000830184612bc3565b92915050565b612bf681612bb1565b8114612c0157600080fd5b50565b600081359050612c1381612bed565b92915050565b60008060408385031215612c3057612c2f6129ae565b5b6000612c3e85828601612c04565b9250506020612c4f85828601612b4f565b9150509250929050565b612c6281612b2e565b82525050565b6000602082019050612c7d6000830184612c59565b92915050565b600080600060608486031215612c9c57612c9b6129ae565b5b6000612caa86828701612c04565b9350506020612cbb86828701612c04565b9250506040612ccc86828701612b4f565b9150509250925092565b600080fd5b600080fd5b7f4e487b7100000000000000000000000000000000000000000000000000000000600052604160045260246000fd5b612d1882612ac2565b810181811067ffffffffffffffff82111715612d3757612d36612ce0565b5b80604052505050565b6000612d4a6129a4565b9050612d568282612d0f565b919050565b600067ffffffffffffffff821115612d7657612d75612ce0565b5b612d7f82612ac2565b9050602081019050919050565b82818337600083830152505050565b6000612dae612da984612d5b565b612d40565b905082815260208101848484011115612dca57612dc9612cdb565b5b612dd5848285612d8c565b509392505050565b600082601f830112612df257612df1612cd6565b5b8135612e02848260208601612d9b565b91505092915050565b600060ff82169050919050565b612e2181612e0b565b8114612e2c57600080fd5b50565b600081359050612e3e81612e18565b92915050565b60008060008060808587031215612e5e57612e5d6129ae565b5b6000612e6c87828801612c04565b9450506020612e7d87828801612b4f565b935050604085013567ffffffffffffffff811115612e9e57612e9d6129b3565b5b612eaa87828801612ddd565b9250506060612ebb87828801612e2f565b91505092959194509250565b600060208284031215612edd57612edc6129ae565b5b6000612eeb84828501612c04565b91505092915050565b612efd81612a3d565b8114612f0857600080fd5b50565b600081359050612f1a81612ef4565b92915050565b60008060408385031215612f3757612f366129ae565b5b6000612f4585828601612c04565b9250506020612f5685828601612f0b565b9150509250929050565b600067ffffffffffffffff821115612f7b57612f7a612ce0565b5b612f8482612ac2565b9050602081019050919050565b6000612fa4612f9f84612f60565b612d40565b905082815260208101848484011115612fc057612fbf612cdb565b5b612fcb848285612d8c565b509392505050565b600082601f830112612fe857612fe7612cd6565b5b8135612ff8848260208601612f91565b91505092915050565b6000806000806080858703121561301b5761301a6129ae565b5b600061302987828801612c04565b945050602061303a87828801612c04565b935050604061304b87828801612b4f565b925050606085013567ffffffffffffffff81111561306c5761306b6129b3565b5b61307887828801612fd3565b91505092959194509250565b6000806040838503121561309b5761309a6129ae565b5b60006130a985828601612c04565b92505060206130ba85828601612c04565b9150509250929050565b600081519050919050565b600082825260208201905092915050565b6000819050602082019050919050565b6130f981612b2e565b82525050565b600082825260208201905092915050565b600061311b82612a73565b61312581856130ff565b9350613135818560208601612a8f565b61313e81612ac2565b840191505092915050565b61315281612e0b565b82525050565b600060608301600083015161317060008601826130f0565b50602083015184820360208601526131888282613110565b915050604083015161319d6040860182613149565b508091505092915050565b60006131b48383613158565b905092915050565b6000602082019050919050565b60006131d4826130c4565b6131de81856130cf565b9350836020820285016131f0856130e0565b8060005b8581101561322c578484038952815161320d85826131a8565b9450613218836131bc565b925060208a019950506001810190506131f4565b50829750879550505050505092915050565b6000602082019050818103600083015261325881846131c9565b905092915050565b7f4e487b7100000000000000000000000000000000000000000000000000000000600052602260045260246000fd5b600060028204905060018216806132a757607f821691505b602082108114156132bb576132ba613260565b5b50919050565b7f4552433732313a20617070726f76656420717565727920666f72206e6f6e657860008201527f697374656e7420746f6b656e0000000000000000000000000000000000000000602082015250565b600061331d602c83612a7e565b9150613328826132c1565b604082019050919050565b6000602082019050818103600083015261334c81613310565b9050919050565b7f4552433732313a20617070726f76616c20746f2063757272656e74206f776e6560008201527f7200000000000000000000000000000000000000000000000000000000000000602082015250565b60006133af602183612a7e565b91506133ba82613353565b604082019050919050565b600060208201905081810360008301526133de816133a2565b9050919050565b7f4552433732313a20617070726f76652063616c6c6572206973206e6f74206f7760008201527f6e6572206e6f7220617070726f76656420666f7220616c6c0000000000000000602082015250565b6000613441603883612a7e565b915061344c826133e5565b604082019050919050565b6000602082019050818103600083015261347081613434565b9050919050565b7f4552433732313a207472616e736665722063616c6c6572206973206e6f74206f60008201527f776e6572206e6f7220617070726f766564000000000000000000000000000000602082015250565b60006134d3603183612a7e565b91506134de82613477565b604082019050919050565b60006020820190508181036000830152613502816134c6565b9050919050565b7f455243373231456e756d657261626c653a206f776e657220696e646578206f7560008201527f74206f6620626f756e6473000000000000000000000000000000000000000000602082015250565b6000613565602b83612a7e565b915061357082613509565b604082019050919050565b6000602082019050818103600083015261359481613558565b9050919050565b7f4f776e61626c653a2063616c6c6572206973206e6f7420746865206f776e6572600082015250565b60006135d1602083612a7e565b91506135dc8261359b565b602082019050919050565b60006020820190508181036000830152613600816135c4565b9050919050565b7f4552433732314275726e61626c653a2063616c6c6572206973206e6f74206f7760008201527f6e6572206e6f7220617070726f76656400000000000000000000000000000000602082015250565b6000613663603083612a7e565b915061366e82613607565b604082019050919050565b6000602082019050818103600083015261369281613656565b9050919050565b7f455243373231456e756d657261626c653a20676c6f62616c20696e646578206f60008201527f7574206f6620626f756e64730000000000000000000000000000000000000000602082015250565b60006136f5602c83612a7e565b915061370082613699565b604082019050919050565b60006020820190508181036000830152613724816136e8565b9050919050565b7f4e487b7100000000000000000000000000000000000000000000000000000000600052603260045260246000fd5b7f4552433732313a206f776e657220717565727920666f72206e6f6e657869737460008201527f656e7420746f6b656e0000000000000000000000000000000000000000000000602082015250565b60006137b6602983612a7e565b91506137c18261375a565b604082019050919050565b600060208201905081810360008301526137e5816137a9565b9050919050565b7f4552433732313a2062616c616e636520717565727920666f7220746865207a6560008201527f726f206164647265737300000000000000000000000000000000000000000000602082015250565b6000613848602a83612a7e565b9150613853826137ec565b604082019050919050565b600060208201905081810360008301526138778161383b565b9050919050565b7f4f776e61626c653a206e6577206f776e657220697320746865207a65726f206160008201527f6464726573730000000000000000000000000000000000000000000000000000602082015250565b60006138da602683612a7e565b91506138e58261387e565b604082019050919050565b60006020820190508181036000830152613909816138cd565b9050919050565b7f4552433732313a206f70657261746f7220717565727920666f72206e6f6e657860008201527f697374656e7420746f6b656e0000000000000000000000000000000000000000602082015250565b600061396c602c83612a7e565b915061397782613910565b604082019050919050565b6000602082019050818103600083015261399b8161395f565b9050919050565b7f4552433732313a207472616e73666572206f6620746f6b656e2074686174206960008201527f73206e6f74206f776e0000000000000000000000000000000000000000000000602082015250565b60006139fe602983612a7e565b9150613a09826139a2565b604082019050919050565b60006020820190508181036000830152613a2d816139f1565b9050919050565b7f4552433732313a207472616e7366657220746f20746865207a65726f2061646460008201527f7265737300000000000000000000000000000000000000000000000000000000602082015250565b6000613a90602483612a7e565b9150613a9b82613a34565b604082019050919050565b60006020820190508181036000830152613abf81613a83565b9050919050565b7f4e487b7100000000000000000000000000000000000000000000000000000000600052601160045260246000fd5b6000613b0082612b2e565b9150613b0b83612b2e565b925082821015613b1e57613b1d613ac6565b5b828203905092915050565b6000613b3482612b2e565b9150613b3f83612b2e565b9250827fffffffffffffffffffffffffffffffffffffffffffffffffffffffffffffffff03821115613b7457613b73613ac6565b5b828201905092915050565b7f5061757361626c653a206e6f7420706175736564000000000000000000000000600082015250565b6000613bb5601483612a7e565b9150613bc082613b7f565b602082019050919050565b60006020820190508181036000830152613be481613ba8565b9050919050565b7f45524337323155524953746f726167653a2055524920736574206f66206e6f6e60008201527f6578697374656e7420746f6b656e000000000000000000000000000000000000602082015250565b6000613c47602e83612a7e565b9150613c5282613beb565b604082019050919050565b60006020820190508181036000830152613c7681613c3a565b9050919050565b7f5061757361626c653a2070617573656400000000000000000000000000000000600082015250565b6000613cb3601083612a7e565b9150613cbe82613c7d565b602082019050919050565b60006020820190508181036000830152613ce281613ca6565b9050919050565b7f4552433732313a20617070726f766520746f2063616c6c657200000000000000600082015250565b6000613d1f601983612a7e565b9150613d2a82613ce9565b602082019050919050565b60006020820190508181036000830152613d4e81613d12565b9050919050565b7f4552433732313a207472616e7366657220746f206e6f6e20455243373231526560008201527f63656976657220696d706c656d656e7465720000000000000000000000000000602082015250565b6000613db1603283612a7e565b9150613dbc82613d55565b604082019050919050565b60006020820190508181036000830152613de081613da4565b9050919050565b7f45524337323155524953746f726167653a2055524920717565727920666f722060008201527f6e6f6e6578697374656e7420746f6b656e000000000000000000000000000000602082015250565b6000613e43603183612a7e565b9150613e4e82613de7565b604082019050919050565b60006020820190508181036000830152613e7281613e36565b9050919050565b600081905092915050565b6000613e8f82612a73565b613e998185613e79565b9350613ea9818560208601612a8f565b80840191505092915050565b6000613ec18285613e84565b9150613ecd8284613e84565b91508190509392505050565b600081519050919050565b600082825260208201905092915050565b6000613f0082613ed9565b613f0a8185613ee4565b9350613f1a818560208601612a8f565b613f2381612ac2565b840191505092915050565b6000608082019050613f436000830187612bc3565b613f506020830186612bc3565b613f5d6040830185612c59565b8181036060830152613f6f8184613ef5565b905095945050505050565b600081519050613f89816129e4565b92915050565b600060208284031215613fa557613fa46129ae565b5b6000613fb384828501613f7a565b91505092915050565b7f4552433732314d657461646174613a2055524920717565727920666f72206e6f60008201527f6e6578697374656e7420746f6b656e0000000000000000000000000000000000602082015250565b6000614018602f83612a7e565b915061402382613fbc565b604082019050919050565b600060208201905081810360008301526140478161400b565b9050919050565b7f4552433732313a206d696e7420746f20746865207a65726f2061646472657373600082015250565b6000614084602083612a7e565b915061408f8261404e565b602082019050919050565b600060208201905081810360008301526140b381614077565b9050919050565b7f4552433732313a20746f6b656e20616c7265616479206d696e74656400000000600082015250565b60006140f0601c83612a7e565b91506140fb826140ba565b602082019050919050565b6000602082019050818103600083015261411f816140e3565b9050919050565b600061413182612b2e565b91507fffffffffffffffffffffffffffffffffffffffffffffffffffffffffffffffff82141561416457614163613ac6565b5b600182019050919050565b7f4e487b7100000000000000000000000000000000000000000000000000000000600052601260045260246000fd5b60006141a982612b2e565b91506141b483612b2e565b9250826141c4576141c361416f565b5b828204905092915050565b60006141da82612b2e565b91506141e583612b2e565b9250826141f5576141f461416f565b5b828206905092915050565b7f4e487b7100000000000000000000000000000000000000000000000000000000600052603160045260246000fdfea26469706673582212200de5c8bc1f339243baed62658ebbd82affdaa67445ea3ef7b7781e2bbdbc2a8864736f6c634300080a0033",
  "immutableReferences": {},
  "source": "// SPDX-License-Identifier: MIT\r\npragma solidity ^0.8.2;\r\n\r\nimport \"../node_modules/@openzeppelin/contracts/token/ERC721/ERC721.sol\";\r\nimport \"../node_modules/@openzeppelin/contracts/token/ERC721/extensions/ERC721Enumerable.sol\";\r\nimport \"../node_modules/@openzeppelin/contracts/token/ERC721/extensions/ERC721URIStorage.sol\";\r\nimport \"../node_modules/@openzeppelin/contracts/security/Pausable.sol\";\r\nimport \"../node_modules/@openzeppelin/contracts/access/Ownable.sol\";\r\nimport \"../node_modules/@openzeppelin/contracts/token/ERC721/extensions/ERC721Burnable.sol\";\r\n\r\ncontract NFTCosmos is ERC721, ERC721Enumerable, ERC721URIStorage, Pausable, Ownable, ERC721Burnable {\r\n    constructor() ERC721(\"NFTCosmos\", \"NCOS\") {}\r\n\r\n    struct CosmoToken {\r\n        uint256 tokenId;\r\n        string tokenUri;\r\n        uint8 royaltyType;\r\n    }\r\n\r\n    CosmoToken[] private cosmoTokenURIs;\r\n\r\n    function pause() public onlyOwner {\r\n        _pause();\r\n    }\r\n\r\n    function unpause() public onlyOwner {\r\n        _unpause();\r\n    }\r\n\r\n    function safeMint(address to, uint256 tokenId, string memory uri, uint8 royaltyType)\r\n        public\r\n        onlyOwner\r\n    {\r\n        _safeMint(to, tokenId);\r\n        _setTokenURI(tokenId, uri);\r\n        cosmoTokenURIs.push(CosmoToken({tokenId:tokenId, tokenUri:uri, royaltyType:royaltyType}));\r\n    }\r\n\r\n    function _beforeTokenTransfer(address from, address to, uint256 tokenId)\r\n        internal\r\n        whenNotPaused\r\n        override(ERC721, ERC721Enumerable)\r\n    {\r\n        super._beforeTokenTransfer(from, to, tokenId);\r\n    }\r\n\r\n    // The following functions are overrides required by Solidity.\r\n\r\n    function _burn(uint256 tokenId) internal override(ERC721, ERC721URIStorage) {\r\n        super._burn(tokenId);\r\n    }\r\n\r\n    function tokenURI(uint256 tokenId)\r\n        public\r\n        view\r\n        override(ERC721, ERC721URIStorage)\r\n        returns (string memory)\r\n    {\r\n        return super.tokenURI(tokenId);\r\n    }\r\n\r\n    function supportsInterface(bytes4 interfaceId)\r\n        public\r\n        view\r\n        override(ERC721, ERC721Enumerable)\r\n        returns (bool)\r\n    {\r\n        return super.supportsInterface(interfaceId);\r\n    }\r\n\r\n    //function to get all the tokens\r\n    function getTokenUris() public view returns(CosmoToken[] memory){\r\n        return cosmoTokenURIs;\r\n    }\r\n\r\n\r\n\r\n}\r\n",
  "sourcePath": "/home/sant933/nfthistory/contracts/NFTCosmos.sol",
  "compiler": {
    "name": "solc",
    "version": "0.8.10+commit.fc410830.Emscripten.clang"
  },
  "schemaVersion": "3.4.3",
  "updatedAt": "2021-11-25T23:11:31.531Z",
  "devdoc": {
    "kind": "dev",
    "methods": {
      "approve(address,uint256)": {
        "details": "See {IERC721-approve}."
      },
      "balanceOf(address)": {
        "details": "See {IERC721-balanceOf}."
      },
      "burn(uint256)": {
        "details": "Burns `tokenId`. See {ERC721-_burn}. Requirements: - The caller must own `tokenId` or be an approved operator."
      },
      "getApproved(uint256)": {
        "details": "See {IERC721-getApproved}."
      },
      "isApprovedForAll(address,address)": {
        "details": "See {IERC721-isApprovedForAll}."
      },
      "name()": {
        "details": "See {IERC721Metadata-name}."
      },
      "owner()": {
        "details": "Returns the address of the current owner."
      },
      "ownerOf(uint256)": {
        "details": "See {IERC721-ownerOf}."
      },
      "paused()": {
        "details": "Returns true if the contract is paused, and false otherwise."
      },
      "renounceOwnership()": {
        "details": "Leaves the contract without owner. It will not be possible to call `onlyOwner` functions anymore. Can only be called by the current owner. NOTE: Renouncing ownership will leave the contract without an owner, thereby removing any functionality that is only available to the owner."
      },
      "safeTransferFrom(address,address,uint256)": {
        "details": "See {IERC721-safeTransferFrom}."
      },
      "safeTransferFrom(address,address,uint256,bytes)": {
        "details": "See {IERC721-safeTransferFrom}."
      },
      "setApprovalForAll(address,bool)": {
        "details": "See {IERC721-setApprovalForAll}."
      },
      "symbol()": {
        "details": "See {IERC721Metadata-symbol}."
      },
      "tokenByIndex(uint256)": {
        "details": "See {IERC721Enumerable-tokenByIndex}."
      },
      "tokenOfOwnerByIndex(address,uint256)": {
        "details": "See {IERC721Enumerable-tokenOfOwnerByIndex}."
      },
      "totalSupply()": {
        "details": "See {IERC721Enumerable-totalSupply}."
      },
      "transferFrom(address,address,uint256)": {
        "details": "See {IERC721-transferFrom}."
      },
      "transferOwnership(address)": {
        "details": "Transfers ownership of the contract to a new account (`newOwner`). Can only be called by the current owner."
      }
    },
    "version": 1
  },
  "userdoc": {
    "kind": "user",
    "methods": {},
    "version": 1
  }
}