{
  "contractName": "Bakery",
  "abi": [
    {
      "inputs": [
        {
          "internalType": "uint256",
          "name": "",
          "type": "uint256"
        }
      ],
      "name": "contracts",
      "outputs": [
        {
          "internalType": "address",
          "name": "",
          "type": "address"
        }
      ],
      "stateMutability": "view",
      "type": "function"
    },
    {
      "inputs": [],
      "name": "getContractCount",
      "outputs": [
        {
          "internalType": "uint256",
          "name": "contractCount",
          "type": "uint256"
        }
      ],
      "stateMutability": "view",
      "type": "function"
    },
    {
      "inputs": [
        {
          "internalType": "uint256",
          "name": "id",
          "type": "uint256"
        }
      ],
      "name": "getContractAddress",
      "outputs": [
        {
          "internalType": "address",
          "name": "contractAddress",
          "type": "address"
        }
      ],
      "stateMutability": "view",
      "type": "function"
    },
    {
      "inputs": [],
      "name": "newCookie",
      "outputs": [
        {
          "internalType": "address",
          "name": "newContract",
          "type": "address"
        }
      ],
      "stateMutability": "nonpayable",
      "type": "function"
    }
  ],
  "bytecode": "0x608060405234801561001057600080fd5b50610513806100206000396000f3fe608060405234801561001057600080fd5b506004361061004c5760003560e01c8063474da79a146100515780639399869d14610081578063aefa7d981461009f578063c3d38586146100cf575b600080fd5b61006b6004803603810190610066919061025f565b6100ed565b60405161007891906102cd565b60405180910390f35b61008961012c565b60405161009691906102f7565b60405180910390f35b6100b960048036038101906100b4919061025f565b610138565b6040516100c691906102cd565b60405180910390f35b6100d761017f565b6040516100e491906102cd565b60405180910390f35b600081815481106100fd57600080fd5b906000526020600020016000915054906101000a900473ffffffffffffffffffffffffffffffffffffffff1681565b60008080549050905090565b600080828154811061014d5761014c610312565b5b9060005260206000200160009054906101000a900473ffffffffffffffffffffffffffffffffffffffff169050919050565b60008060405161018e90610217565b604051809103906000f0801580156101aa573d6000803e3d6000fd5b5090506000819080600181540180825580915050600190039060005260206000200160009091909190916101000a81548173ffffffffffffffffffffffffffffffffffffffff021916908373ffffffffffffffffffffffffffffffffffffffff1602179055508091505090565b61019c8061034283390190565b600080fd5b6000819050919050565b61023c81610229565b811461024757600080fd5b50565b60008135905061025981610233565b92915050565b60006020828403121561027557610274610224565b5b60006102838482850161024a565b91505092915050565b600073ffffffffffffffffffffffffffffffffffffffff82169050919050565b60006102b78261028c565b9050919050565b6102c7816102ac565b82525050565b60006020820190506102e260008301846102be565b92915050565b6102f181610229565b82525050565b600060208201905061030c60008301846102e8565b92915050565b7f4e487b7100000000000000000000000000000000000000000000000000000000600052603260045260246000fdfe608060405234801561001057600080fd5b5061017c806100206000396000f3fe608060405234801561001057600080fd5b506004361061002b5760003560e01c8063fc442ec314610030575b600080fd5b61003861004e565b6040516100459190610124565b60405180910390f35b60606040518060400160405280601681526020017f6d6d6d202e2e2e2063686f636f6c617465206368697000000000000000000000815250905090565b600081519050919050565b600082825260208201905092915050565b60005b838110156100c55780820151818401526020810190506100aa565b838111156100d4576000848401525b50505050565b6000601f19601f8301169050919050565b60006100f68261008b565b6101008185610096565b93506101108185602086016100a7565b610119816100da565b840191505092915050565b6000602082019050818103600083015261013e81846100eb565b90509291505056fea2646970667358221220d99a8db9afc9828b946df0e11552b100b353aa378ecef9ddd44bb8bbdf53a26e64736f6c634300080a0033a26469706673582212204076257c7c2f99d65562cedc39bbdb61e9e2183df055fa5ed3dd4e80f88dc8bb64736f6c634300080a0033",
  "immutableReferences": {},
  "source": "// SPDX-License-Identifier: MIT\npragma solidity >=0.4.21 <0.9.0;\n\ncontract Bakery {\n\n  // index of created contracts\n  address[] public contracts;\n\n  // useful to know the row count in contracts index\n  function getContractCount() public view returns(uint contractCount)\n  {\n    return contracts.length;\n  }\n\nfunction getContractAddress(uint id) public view returns(address contractAddress)\n  {\n    return contracts[id];\n  }\n\n  // deploy a new contract\n  function newCookie() public returns (address newContract)\n  {\n    Cookie c =new Cookie();\n    contracts.push(address(c)); //  Need to check if this works!\n    return address(c);\n  }\n}\n\ncontract Cookie {\n\n  // suppose the deployed contract has a purpose\n  function getFlavor() public pure returns (string memory flavor)\n  {\n    return \"mmm ... chocolate chip\";\n  }    \n}",
  "sourcePath": "/home/vikas/SOLIDITY-101/contracts/BakeryDeployingCookie.sol",
  "compiler": {
    "name": "solc",
    "version": "0.8.10+commit.fc410830.Emscripten.clang"
  },
  "schemaVersion": "3.4.3",
  "updatedAt": "2021-11-25T18:24:11.658Z",
  "devdoc": {
    "kind": "dev",
    "methods": {},
    "version": 1
  },
  "userdoc": {
    "kind": "user",
    "methods": {},
    "version": 1
  }
}