{
  "contractName": "Cookie",
  "abi": [
    {
      "inputs": [],
      "name": "getFlavor",
      "outputs": [
        {
          "internalType": "string",
          "name": "flavor",
          "type": "string"
        }
      ],
      "stateMutability": "pure",
      "type": "function"
    }
  ],
  "bytecode": "0x608060405234801561001057600080fd5b5061017c806100206000396000f3fe608060405234801561001057600080fd5b506004361061002b5760003560e01c8063fc442ec314610030575b600080fd5b61003861004e565b6040516100459190610124565b60405180910390f35b60606040518060400160405280601681526020017f6d6d6d202e2e2e2063686f636f6c617465206368697000000000000000000000815250905090565b600081519050919050565b600082825260208201905092915050565b60005b838110156100c55780820151818401526020810190506100aa565b838111156100d4576000848401525b50505050565b6000601f19601f8301169050919050565b60006100f68261008b565b6101008185610096565b93506101108185602086016100a7565b610119816100da565b840191505092915050565b6000602082019050818103600083015261013e81846100eb565b90509291505056fea2646970667358221220d99a8db9afc9828b946df0e11552b100b353aa378ecef9ddd44bb8bbdf53a26e64736f6c634300080a0033",
  "immutableReferences": {},
  "source": "// SPDX-License-Identifier: MIT\npragma solidity >=0.4.21 <0.9.0;\n\ncontract Bakery {\n\n  // index of created contracts\n  address[] public contracts;\n\n  // useful to know the row count in contracts index\n  function getContractCount() public view returns(uint contractCount)\n  {\n    return contracts.length;\n  }\n\nfunction getContractAddress(uint id) public view returns(address contractAddress)\n  {\n    return contracts[id];\n  }\n\n  // deploy a new contract\n  function newCookie() public returns (address newContract)\n  {\n    Cookie c =new Cookie();\n    contracts.push(address(c)); //  Need to check if this works!\n    return address(c);\n  }\n}\n\ncontract Cookie {\n\n  // suppose the deployed contract has a purpose\n  function getFlavor() public pure returns (string memory flavor)\n  {\n    return \"mmm ... chocolate chip\";\n  }    \n}",
  "sourcePath": "/home/vikas/SOLIDITY-101/contracts/BakeryDeployingCookie.sol",
  "compiler": {
    "name": "solc",
    "version": "0.8.10+commit.fc410830.Emscripten.clang"
  },
  "schemaVersion": "3.4.3",
  "updatedAt": "2021-11-25T18:24:11.661Z",
  "devdoc": {
    "kind": "dev",
    "methods": {},
    "version": 1
  },
  "userdoc": {
    "kind": "user",
    "methods": {},
    "version": 1
  }
}