{
  "contractName": "NFTAuctionFactory",
  "abi": [
    {
      "inputs": [
        {
          "internalType": "uint256",
          "name": "",
          "type": "uint256"
        }
      ],
      "name": "auctions",
      "outputs": [
        {
          "internalType": "address",
          "name": "",
          "type": "address"
        }
      ],
      "stateMutability": "view",
      "type": "function",
      "constant": true
    },
    {
      "inputs": [],
      "name": "getTotalAuctionsCount",
      "outputs": [
        {
          "internalType": "uint256",
          "name": "contractCount",
          "type": "uint256"
        }
      ],
      "stateMutability": "view",
      "type": "function",
      "constant": true
    },
    {
      "inputs": [
        {
          "internalType": "uint256",
          "name": "id",
          "type": "uint256"
        }
      ],
      "name": "getAuctionAddress",
      "outputs": [
        {
          "internalType": "address",
          "name": "contractAddress",
          "type": "address"
        }
      ],
      "stateMutability": "view",
      "type": "function",
      "constant": true
    },
    {
      "inputs": [
        {
          "internalType": "address",
          "name": "_nft",
          "type": "address"
        },
        {
          "internalType": "uint256",
          "name": "_nftId",
          "type": "uint256"
        },
        {
          "internalType": "uint256",
          "name": "_startingBid",
          "type": "uint256"
        },
        {
          "internalType": "uint256",
          "name": "_days",
          "type": "uint256"
        }
      ],
      "name": "createNewAuction",
      "outputs": [
        {
          "internalType": "address",
          "name": "newContract",
          "type": "address"
        }
      ],
      "stateMutability": "nonpayable",
      "type": "function"
    }
  ],
  "bytecode": "0x608060405234801561001057600080fd5b50611938806100206000396000f3fe60806040523480156200001157600080fd5b5060043610620000525760003560e01c8063571a26a014620000575780637b07d60f146200008d578063a0bff76b14620000c3578063df6378e914620000e5575b600080fd5b6200007560048036038101906200006f9190620002b2565b6200011b565b60405162000084919062000329565b60405180910390f35b620000ab6004803603810190620000a5919062000377565b6200015b565b604051620000ba919062000329565b60405180910390f35b620000cd6200020e565b604051620000dc9190620003fa565b60405180910390f35b620001036004803603810190620000fd9190620002b2565b6200021a565b60405162000112919062000329565b60405180910390f35b600081815481106200012c57600080fd5b906000526020600020016000915054906101000a900473ffffffffffffffffffffffffffffffffffffffff1681565b60008085858585604051620001709062000264565b6200017f949392919062000417565b604051809103906000f0801580156200019c573d6000803e3d6000fd5b5090506000819080600181540180825580915050600190039060005260206000200160009091909190916101000a81548173ffffffffffffffffffffffffffffffffffffffff021916908373ffffffffffffffffffffffffffffffffffffffff16021790555080915050949350505050565b60008080549050905090565b600080828154811062000232576200023162000464565b5b9060005260206000200160009054906101000a900473ffffffffffffffffffffffffffffffffffffffff169050919050565b61146f806200049483390190565b600080fd5b6000819050919050565b6200028c8162000277565b81146200029857600080fd5b50565b600081359050620002ac8162000281565b92915050565b600060208284031215620002cb57620002ca62000272565b5b6000620002db848285016200029b565b91505092915050565b600073ffffffffffffffffffffffffffffffffffffffff82169050919050565b60006200031182620002e4565b9050919050565b620003238162000304565b82525050565b600060208201905062000340600083018462000318565b92915050565b620003518162000304565b81146200035d57600080fd5b50565b600081359050620003718162000346565b92915050565b6000806000806080858703121562000394576200039362000272565b5b6000620003a48782880162000360565b9450506020620003b7878288016200029b565b9350506040620003ca878288016200029b565b9250506060620003dd878288016200029b565b91505092959194509250565b620003f48162000277565b82525050565b6000602082019050620004116000830184620003e9565b92915050565b60006080820190506200042e600083018762000318565b6200043d6020830186620003e9565b6200044c6040830185620003e9565b6200045b6060830184620003e9565b95945050505050565b7f4e487b7100000000000000000000000000000000000000000000000000000000600052603260045260246000fdfe60806040523480156200001157600080fd5b506040516200146f3803806200146f8339818101604052810190620000379190620002c8565b836000806101000a81548173ffffffffffffffffffffffffffffffffffffffff021916908373ffffffffffffffffffffffffffffffffffffffff1602179055508260018190555033600260006101000a81548173ffffffffffffffffffffffffffffffffffffffff021916908373ffffffffffffffffffffffffffffffffffffffff16021790555081600581905550600460009054906101000a900460ff161562000119576040517f08c379a000000000000000000000000000000000000000000000000000000000815260040162000110906200039b565b60405180910390fd5b60008054906101000a900473ffffffffffffffffffffffffffffffffffffffff1673ffffffffffffffffffffffffffffffffffffffff166323b872dd33306001546040518463ffffffff1660e01b81526004016200017a93929190620003df565b600060405180830381600087803b1580156200019557600080fd5b505af1158015620001aa573d6000803e3d6000fd5b505050506001600460006101000a81548160ff0219169083151502179055506201518081620001da91906200044b565b42620001e79190620004ac565b6003819055507fd295ebf0a48a9a43d600a6ecb8626baa711d5750dec13a08145013aa30cb92ea60405160405180910390a15050505062000509565b600080fd5b600073ffffffffffffffffffffffffffffffffffffffff82169050919050565b6000620002558262000228565b9050919050565b620002678162000248565b81146200027357600080fd5b50565b60008151905062000287816200025c565b92915050565b6000819050919050565b620002a2816200028d565b8114620002ae57600080fd5b50565b600081519050620002c28162000297565b92915050565b60008060008060808587031215620002e557620002e462000223565b5b6000620002f58782880162000276565b94505060206200030887828801620002b1565b93505060406200031b87828801620002b1565b92505060606200032e87828801620002b1565b91505092959194509250565b600082825260208201905092915050565b7f7374617274656400000000000000000000000000000000000000000000000000600082015250565b6000620003836007836200033a565b915062000390826200034b565b602082019050919050565b60006020820190508181036000830152620003b68162000374565b9050919050565b620003c88162000248565b82525050565b620003d9816200028d565b82525050565b6000606082019050620003f66000830186620003bd565b620004056020830185620003bd565b620004146040830184620003ce565b949350505050565b7f4e487b7100000000000000000000000000000000000000000000000000000000600052601160045260246000fd5b600062000458826200028d565b915062000465836200028d565b9250817fffffffffffffffffffffffffffffffffffffffffffffffffffffffffffffffff0483118215151615620004a157620004a06200041c565b5b828202905092915050565b6000620004b9826200028d565b9150620004c6836200028d565b9250827fffffffffffffffffffffffffffffffffffffffffffffffffffffffffffffffff03821115620004fe57620004fd6200041c565b5b828201905092915050565b610f5680620005196000396000f3fe6080604052600436106100a75760003560e01c806362ea82db1161006457806362ea82db146101795780637cc3ae8c146101b657806391f90157146101e1578063c6bc51821461020c578063d57bde7914610237578063fe67a54b14610262576100a7565b806308551a53146100ac57806312fa6feb146100d75780631998aeef146101025780631f2698ab1461010c5780633ccfd60b1461013757806347ccca021461014e575b600080fd5b3480156100b857600080fd5b506100c1610279565b6040516100ce9190610a62565b60405180910390f35b3480156100e357600080fd5b506100ec61029f565b6040516100f99190610a98565b60405180910390f35b61010a6102b2565b005b34801561011857600080fd5b506101216104f2565b60405161012e9190610a98565b60405180910390f35b34801561014357600080fd5b5061014c610505565b005b34801561015a57600080fd5b50610163610626565b6040516101709190610b12565b60405180910390f35b34801561018557600080fd5b506101a0600480360381019061019b9190610b70565b61064a565b6040516101ad9190610bb6565b60405180910390f35b3480156101c257600080fd5b506101cb610662565b6040516101d89190610bb6565b60405180910390f35b3480156101ed57600080fd5b506101f6610668565b6040516102039190610be0565b60405180910390f35b34801561021857600080fd5b5061022161068e565b60405161022e9190610bb6565b60405180910390f35b34801561024357600080fd5b5061024c610694565b6040516102599190610bb6565b60405180910390f35b34801561026e57600080fd5b5061027761069a565b005b600260009054906101000a900473ffffffffffffffffffffffffffffffffffffffff1681565b600460019054906101000a900460ff1681565b600460009054906101000a900460ff16610301576040517f08c379a00000000000000000000000000000000000000000000000000000000081526004016102f890610c58565b60405180910390fd5b6003544210610345576040517f08c379a000000000000000000000000000000000000000000000000000000000815260040161033c90610cc4565b60405180910390fd5b6005543411610389576040517f08c379a000000000000000000000000000000000000000000000000000000000815260040161038090610d30565b60405180910390fd5b600073ffffffffffffffffffffffffffffffffffffffff16600460029054906101000a900473ffffffffffffffffffffffffffffffffffffffff1673ffffffffffffffffffffffffffffffffffffffff161461045a5760055460066000600460029054906101000a900473ffffffffffffffffffffffffffffffffffffffff1673ffffffffffffffffffffffffffffffffffffffff1673ffffffffffffffffffffffffffffffffffffffff16815260200190815260200160002060008282546104529190610d7f565b925050819055505b33600460026101000a81548173ffffffffffffffffffffffffffffffffffffffff021916908373ffffffffffffffffffffffffffffffffffffffff160217905550346005819055503373ffffffffffffffffffffffffffffffffffffffff167fe684a55f31b79eca403df938249029212a5925ec6be8012e099b45bc1019e5d2346040516104e89190610bb6565b60405180910390a2565b600460009054906101000a900460ff1681565b6000600660003373ffffffffffffffffffffffffffffffffffffffff1673ffffffffffffffffffffffffffffffffffffffff1681526020019081526020016000205490506000600660003373ffffffffffffffffffffffffffffffffffffffff1673ffffffffffffffffffffffffffffffffffffffff168152602001908152602001600020819055503373ffffffffffffffffffffffffffffffffffffffff166108fc829081150290604051600060405180830381858888f193505050501580156105d4573d6000803e3d6000fd5b503373ffffffffffffffffffffffffffffffffffffffff167f884edad9ce6fa2440d8a54cc123490eb96d2768479d49ff9c7366125a94243648260405161061b9190610bb6565b60405180910390a250565b60008054906101000a900473ffffffffffffffffffffffffffffffffffffffff1681565b60066020528060005260406000206000915090505481565b60035481565b600460029054906101000a900473ffffffffffffffffffffffffffffffffffffffff1681565b60015481565b60055481565b600460009054906101000a900460ff166106e9576040517f08c379a00000000000000000000000000000000000000000000000000000000081526004016106e090610c58565b60405180910390fd5b60035442101561072e576040517f08c379a000000000000000000000000000000000000000000000000000000000815260040161072590610e21565b60405180910390fd5b600460019054906101000a900460ff161561077e576040517f08c379a000000000000000000000000000000000000000000000000000000000815260040161077590610e8d565b60405180910390fd5b6001600460016101000a81548160ff021916908315150217905550600073ffffffffffffffffffffffffffffffffffffffff16600460029054906101000a900473ffffffffffffffffffffffffffffffffffffffff1673ffffffffffffffffffffffffffffffffffffffff16146109105760008054906101000a900473ffffffffffffffffffffffffffffffffffffffff1673ffffffffffffffffffffffffffffffffffffffff1663a9059cbb600460029054906101000a900473ffffffffffffffffffffffffffffffffffffffff166001546040518363ffffffff1660e01b815260040161086e929190610ead565b600060405180830381600087803b15801561088857600080fd5b505af115801561089c573d6000803e3d6000fd5b50505050600260009054906101000a900473ffffffffffffffffffffffffffffffffffffffff1673ffffffffffffffffffffffffffffffffffffffff166108fc6005549081150290604051600060405180830381858888f1935050505015801561090a573d6000803e3d6000fd5b506109c2565b60008054906101000a900473ffffffffffffffffffffffffffffffffffffffff1673ffffffffffffffffffffffffffffffffffffffff1663a9059cbb600260009054906101000a900473ffffffffffffffffffffffffffffffffffffffff166001546040518363ffffffff1660e01b815260040161098f929190610ef7565b600060405180830381600087803b1580156109a957600080fd5b505af11580156109bd573d6000803e3d6000fd5b505050505b7fca09734d1fc32150404dc9252b4d991c6bee44319031b7159c03d5ae2c062704600460029054906101000a900473ffffffffffffffffffffffffffffffffffffffff16600554604051610a17929190610ead565b60405180910390a1565b600073ffffffffffffffffffffffffffffffffffffffff82169050919050565b6000610a4c82610a21565b9050919050565b610a5c81610a41565b82525050565b6000602082019050610a776000830184610a53565b92915050565b60008115159050919050565b610a9281610a7d565b82525050565b6000602082019050610aad6000830184610a89565b92915050565b6000819050919050565b6000610ad8610ad3610ace84610a21565b610ab3565b610a21565b9050919050565b6000610aea82610abd565b9050919050565b6000610afc82610adf565b9050919050565b610b0c81610af1565b82525050565b6000602082019050610b276000830184610b03565b92915050565b600080fd5b6000610b3d82610a21565b9050919050565b610b4d81610b32565b8114610b5857600080fd5b50565b600081359050610b6a81610b44565b92915050565b600060208284031215610b8657610b85610b2d565b5b6000610b9484828501610b5b565b91505092915050565b6000819050919050565b610bb081610b9d565b82525050565b6000602082019050610bcb6000830184610ba7565b92915050565b610bda81610b32565b82525050565b6000602082019050610bf56000830184610bd1565b92915050565b600082825260208201905092915050565b7f6e6f742073746172746564000000000000000000000000000000000000000000600082015250565b6000610c42600b83610bfb565b9150610c4d82610c0c565b602082019050919050565b60006020820190508181036000830152610c7181610c35565b9050919050565b7f656e646564000000000000000000000000000000000000000000000000000000600082015250565b6000610cae600583610bfb565b9150610cb982610c78565b602082019050919050565b60006020820190508181036000830152610cdd81610ca1565b9050919050565b7f626964206973206c6f7700000000000000000000000000000000000000000000600082015250565b6000610d1a600a83610bfb565b9150610d2582610ce4565b602082019050919050565b60006020820190508181036000830152610d4981610d0d565b9050919050565b7f4e487b7100000000000000000000000000000000000000000000000000000000600052601160045260246000fd5b6000610d8a82610b9d565b9150610d9583610b9d565b9250827fffffffffffffffffffffffffffffffffffffffffffffffffffffffffffffffff03821115610dca57610dc9610d50565b5b828201905092915050565b7f6e6f7420656e6465640000000000000000000000000000000000000000000000600082015250565b6000610e0b600983610bfb565b9150610e1682610dd5565b602082019050919050565b60006020820190508181036000830152610e3a81610dfe565b9050919050565b7f616c726561647920656e64656400000000000000000000000000000000000000600082015250565b6000610e77600d83610bfb565b9150610e8282610e41565b602082019050919050565b60006020820190508181036000830152610ea681610e6a565b9050919050565b6000604082019050610ec26000830185610bd1565b610ecf6020830184610ba7565b9392505050565b6000610ee182610adf565b9050919050565b610ef181610ed6565b82525050565b6000604082019050610f0c6000830185610ee8565b610f196020830184610ba7565b939250505056fea264697066735822122015b70631b80289c226fd9ff5bc7fdee8d844b456a5af079e3f311c1b07c3efa364736f6c634300080a0033a264697066735822122081ab1e0fe9e5a76d7ecf422d9ff5716079a493e8e467a52e055c03ac9c49781564736f6c634300080a0033",
  "immutableReferences": {},
  "source": "// SPDX-License-Identifier: MIT\npragma solidity >=0.4.21 <0.9.0;\n\ncontract NFTAuctionFactory {\n\n  // index of created auctions\n  address[] public auctions;\n\n  // useful to know the row count in contracts index\n  function getTotalAuctionsCount() public view returns(uint contractCount)\n  {\n    return auctions.length;\n  }\n\nfunction getAuctionAddress(uint id) public view returns(address contractAddress)\n  {\n    return auctions[id];\n  }\n\n  // deploy a new contract\n  function createNewAuction(address _nft, uint _nftId, uint _startingBid, uint _days) public returns (address newContract)\n  {\n    NFTAuction auction = new NFTAuction(_nft, _nftId, _startingBid, _days);\n    auctions.push(address(auction)); \n    return address(auction);\n  }\n}\n\ninterface IERC721 {\n    function transfer(address, uint) external;\n    function transferFrom(address, address, uint) external;\n}\n\ncontract NFTAuction {\n\n  event StartAuction();\n  event Bid(address indexed sender, uint amount);\n  event Withdraw(address indexed bidder, uint amount);\n  event EndAuction(address winner, uint amount);\n\n  IERC721 public nft;\n  uint public nftId;\n\n  address payable public seller;\n  uint public endAt;\n  bool public started;\n  bool public ended;\n\n  address public highestBidder;\n  uint public highestBid;\n  mapping(address => uint) public bids;\n\n  constructor(address _nft, uint _nftId, uint _startingBid, uint _days) {\n    nft = IERC721(_nft);\n    nftId = _nftId;\n\n    seller = payable(msg.sender);\n    highestBid = _startingBid;\n\n    require(!started, \"started\");\n\n    nft.transferFrom(msg.sender, address(this), nftId);\n    started = true;\n    endAt = block.timestamp + _days * 1 days;\n\n    emit StartAuction();\n  }\n\n  function bid() external payable {\n    require(started, \"not started\");\n    require(block.timestamp < endAt, \"ended\");\n    require(msg.value > highestBid, \"bid is low\");\n\n    if (highestBidder != address(0)) {\n        bids[highestBidder] += highestBid;\n    }\n\n    highestBidder = msg.sender;\n    highestBid = msg.value;\n\n    emit Bid(msg.sender, msg.value);\n  }\n\n  function withdraw() external {\n    uint bal = bids[msg.sender];\n    bids[msg.sender] = 0;\n    payable(msg.sender).transfer(bal);\n\n    emit Withdraw(msg.sender, bal);\n  }\n\n  function endAuction() external {\n    require(started, \"not started\");\n    require(block.timestamp >= endAt, \"not ended\");\n    require(!ended, \"already ended\");\n\n    ended = true;\n    if (highestBidder != address(0)) {\n        nft.transfer(highestBidder, nftId);\n        seller.transfer(highestBid);\n    } else {\n        nft.transfer(seller, nftId);\n    }\n\n    emit EndAuction(highestBidder, highestBid);\n  }\n\n}",
  "sourcePath": "/home/vikas/SOLIDITY-101/contracts/NFTAuctionFactory.sol",
  "compiler": {
    "name": "solc",
    "version": "0.8.10+commit.fc410830.Emscripten.clang"
  },
  "schemaVersion": "3.4.3",
  "updatedAt": "2021-11-26T02:31:22.297Z",
  "networkType": "ethereum",
  "devdoc": {
    "kind": "dev",
    "methods": {},
    "version": 1
  },
  "userdoc": {
    "kind": "user",
    "methods": {},
    "version": 1
  }
}