{
  "contractName": "SkyScrapperNFT",
  "abi": [
    {
      "inputs": [],
      "stateMutability": "nonpayable",
      "type": "constructor"
    },
    {
      "anonymous": false,
      "inputs": [
        {
          "indexed": true,
          "internalType": "address",
          "name": "owner",
          "type": "address"
        },
        {
          "indexed": true,
          "internalType": "address",
          "name": "approved",
          "type": "address"
        },
        {
          "indexed": true,
          "internalType": "uint256",
          "name": "tokenId",
          "type": "uint256"
        }
      ],
      "name": "Approval",
      "type": "event"
    },
    {
      "anonymous": false,
      "inputs": [
        {
          "indexed": true,
          "internalType": "address",
          "name": "owner",
          "type": "address"
        },
        {
          "indexed": true,
          "internalType": "address",
          "name": "operator",
          "type": "address"
        },
        {
          "indexed": false,
          "internalType": "bool",
          "name": "approved",
          "type": "bool"
        }
      ],
      "name": "ApprovalForAll",
      "type": "event"
    },
    {
      "anonymous": false,
      "inputs": [
        {
          "indexed": true,
          "internalType": "address",
          "name": "previousOwner",
          "type": "address"
        },
        {
          "indexed": true,
          "internalType": "address",
          "name": "newOwner",
          "type": "address"
        }
      ],
      "name": "OwnershipTransferred",
      "type": "event"
    },
    {
      "anonymous": false,
      "inputs": [
        {
          "indexed": false,
          "internalType": "address",
          "name": "account",
          "type": "address"
        }
      ],
      "name": "Paused",
      "type": "event"
    },
    {
      "anonymous": false,
      "inputs": [
        {
          "indexed": true,
          "internalType": "address",
          "name": "from",
          "type": "address"
        },
        {
          "indexed": true,
          "internalType": "address",
          "name": "to",
          "type": "address"
        },
        {
          "indexed": true,
          "internalType": "uint256",
          "name": "tokenId",
          "type": "uint256"
        }
      ],
      "name": "Transfer",
      "type": "event"
    },
    {
      "anonymous": false,
      "inputs": [
        {
          "indexed": false,
          "internalType": "address",
          "name": "account",
          "type": "address"
        }
      ],
      "name": "Unpaused",
      "type": "event"
    },
    {
      "inputs": [
        {
          "internalType": "address",
          "name": "to",
          "type": "address"
        },
        {
          "internalType": "uint256",
          "name": "tokenId",
          "type": "uint256"
        }
      ],
      "name": "approve",
      "outputs": [],
      "stateMutability": "nonpayable",
      "type": "function"
    },
    {
      "inputs": [
        {
          "internalType": "address",
          "name": "owner",
          "type": "address"
        }
      ],
      "name": "balanceOf",
      "outputs": [
        {
          "internalType": "uint256",
          "name": "",
          "type": "uint256"
        }
      ],
      "stateMutability": "view",
      "type": "function",
      "constant": true
    },
    {
      "inputs": [
        {
          "internalType": "uint256",
          "name": "tokenId",
          "type": "uint256"
        }
      ],
      "name": "burn",
      "outputs": [],
      "stateMutability": "nonpayable",
      "type": "function"
    },
    {
      "inputs": [
        {
          "internalType": "uint256",
          "name": "tokenId",
          "type": "uint256"
        }
      ],
      "name": "getApproved",
      "outputs": [
        {
          "internalType": "address",
          "name": "",
          "type": "address"
        }
      ],
      "stateMutability": "view",
      "type": "function",
      "constant": true
    },
    {
      "inputs": [
        {
          "internalType": "address",
          "name": "owner",
          "type": "address"
        },
        {
          "internalType": "address",
          "name": "operator",
          "type": "address"
        }
      ],
      "name": "isApprovedForAll",
      "outputs": [
        {
          "internalType": "bool",
          "name": "",
          "type": "bool"
        }
      ],
      "stateMutability": "view",
      "type": "function",
      "constant": true
    },
    {
      "inputs": [],
      "name": "name",
      "outputs": [
        {
          "internalType": "string",
          "name": "",
          "type": "string"
        }
      ],
      "stateMutability": "view",
      "type": "function",
      "constant": true
    },
    {
      "inputs": [
        {
          "internalType": "uint256",
          "name": "",
          "type": "uint256"
        }
      ],
      "name": "nftMetaList",
      "outputs": [
        {
          "internalType": "uint256",
          "name": "tokenId",
          "type": "uint256"
        },
        {
          "internalType": "string",
          "name": "uri",
          "type": "string"
        }
      ],
      "stateMutability": "view",
      "type": "function",
      "constant": true
    },
    {
      "inputs": [],
      "name": "owner",
      "outputs": [
        {
          "internalType": "address",
          "name": "",
          "type": "address"
        }
      ],
      "stateMutability": "view",
      "type": "function",
      "constant": true
    },
    {
      "inputs": [
        {
          "internalType": "uint256",
          "name": "tokenId",
          "type": "uint256"
        }
      ],
      "name": "ownerOf",
      "outputs": [
        {
          "internalType": "address",
          "name": "",
          "type": "address"
        }
      ],
      "stateMutability": "view",
      "type": "function",
      "constant": true
    },
    {
      "inputs": [],
      "name": "paused",
      "outputs": [
        {
          "internalType": "bool",
          "name": "",
          "type": "bool"
        }
      ],
      "stateMutability": "view",
      "type": "function",
      "constant": true
    },
    {
      "inputs": [],
      "name": "renounceOwnership",
      "outputs": [],
      "stateMutability": "nonpayable",
      "type": "function"
    },
    {
      "inputs": [
        {
          "internalType": "address",
          "name": "from",
          "type": "address"
        },
        {
          "internalType": "address",
          "name": "to",
          "type": "address"
        },
        {
          "internalType": "uint256",
          "name": "tokenId",
          "type": "uint256"
        }
      ],
      "name": "safeTransferFrom",
      "outputs": [],
      "stateMutability": "nonpayable",
      "type": "function"
    },
    {
      "inputs": [
        {
          "internalType": "address",
          "name": "from",
          "type": "address"
        },
        {
          "internalType": "address",
          "name": "to",
          "type": "address"
        },
        {
          "internalType": "uint256",
          "name": "tokenId",
          "type": "uint256"
        },
        {
          "internalType": "bytes",
          "name": "_data",
          "type": "bytes"
        }
      ],
      "name": "safeTransferFrom",
      "outputs": [],
      "stateMutability": "nonpayable",
      "type": "function"
    },
    {
      "inputs": [
        {
          "internalType": "address",
          "name": "operator",
          "type": "address"
        },
        {
          "internalType": "bool",
          "name": "approved",
          "type": "bool"
        }
      ],
      "name": "setApprovalForAll",
      "outputs": [],
      "stateMutability": "nonpayable",
      "type": "function"
    },
    {
      "inputs": [],
      "name": "symbol",
      "outputs": [
        {
          "internalType": "string",
          "name": "",
          "type": "string"
        }
      ],
      "stateMutability": "view",
      "type": "function",
      "constant": true
    },
    {
      "inputs": [
        {
          "internalType": "uint256",
          "name": "index",
          "type": "uint256"
        }
      ],
      "name": "tokenByIndex",
      "outputs": [
        {
          "internalType": "uint256",
          "name": "",
          "type": "uint256"
        }
      ],
      "stateMutability": "view",
      "type": "function",
      "constant": true
    },
    {
      "inputs": [
        {
          "internalType": "address",
          "name": "owner",
          "type": "address"
        },
        {
          "internalType": "uint256",
          "name": "index",
          "type": "uint256"
        }
      ],
      "name": "tokenOfOwnerByIndex",
      "outputs": [
        {
          "internalType": "uint256",
          "name": "",
          "type": "uint256"
        }
      ],
      "stateMutability": "view",
      "type": "function",
      "constant": true
    },
    {
      "inputs": [],
      "name": "totalSupply",
      "outputs": [
        {
          "internalType": "uint256",
          "name": "",
          "type": "uint256"
        }
      ],
      "stateMutability": "view",
      "type": "function",
      "constant": true
    },
    {
      "inputs": [
        {
          "internalType": "address",
          "name": "from",
          "type": "address"
        },
        {
          "internalType": "address",
          "name": "to",
          "type": "address"
        },
        {
          "internalType": "uint256",
          "name": "tokenId",
          "type": "uint256"
        }
      ],
      "name": "transferFrom",
      "outputs": [],
      "stateMutability": "nonpayable",
      "type": "function"
    },
    {
      "inputs": [
        {
          "internalType": "address",
          "name": "newOwner",
          "type": "address"
        }
      ],
      "name": "transferOwnership",
      "outputs": [],
      "stateMutability": "nonpayable",
      "type": "function"
    },
    {
      "inputs": [],
      "name": "pause",
      "outputs": [],
      "stateMutability": "nonpayable",
      "type": "function"
    },
    {
      "inputs": [],
      "name": "unpause",
      "outputs": [],
      "stateMutability": "nonpayable",
      "type": "function"
    },
    {
      "inputs": [
        {
          "internalType": "address",
          "name": "to",
          "type": "address"
        },
        {
          "internalType": "string",
          "name": "uri",
          "type": "string"
        }
      ],
      "name": "safeMint",
      "outputs": [],
      "stateMutability": "nonpayable",
      "type": "function"
    },
    {
      "inputs": [
        {
          "internalType": "uint256",
          "name": "tokenId",
          "type": "uint256"
        }
      ],
      "name": "tokenURI",
      "outputs": [
        {
          "internalType": "string",
          "name": "",
          "type": "string"
        }
      ],
      "stateMutability": "view",
      "type": "function",
      "constant": true
    },
    {
      "inputs": [
        {
          "internalType": "bytes4",
          "name": "interfaceId",
          "type": "bytes4"
        }
      ],
      "name": "supportsInterface",
      "outputs": [
        {
          "internalType": "bool",
          "name": "",
          "type": "bool"
        }
      ],
      "stateMutability": "view",
      "type": "function",
      "constant": true
    }
  ],
  "bytecode": "0x60806040523480156200001157600080fd5b506040518060400160405280601c81526020017f536b7953637261707065724e465450617373436f6c6c656374697665000000008152506040518060400160405280600381526020017f53534e0000000000000000000000000000000000000000000000000000000000815250816000908051906020019062000096929190620001c1565b508060019080519060200190620000af929190620001c1565b5050506000600b60006101000a81548160ff021916908315150217905550620000ed620000e1620000f360201b60201c565b620000fb60201b60201c565b620002d6565b600033905090565b6000600b60019054906101000a900473ffffffffffffffffffffffffffffffffffffffff16905081600b60016101000a81548173ffffffffffffffffffffffffffffffffffffffff021916908373ffffffffffffffffffffffffffffffffffffffff1602179055508173ffffffffffffffffffffffffffffffffffffffff168173ffffffffffffffffffffffffffffffffffffffff167f8be0079c531659141344cd1fd0a4f28419497f9722a3daafe3b4186f6b6457e060405160405180910390a35050565b828054620001cf90620002a0565b90600052602060002090601f016020900481019282620001f357600085556200023f565b82601f106200020e57805160ff19168380011785556200023f565b828001600101855582156200023f579182015b828111156200023e57825182559160200191906001019062000221565b5b5090506200024e919062000252565b5090565b5b808211156200026d57600081600090555060010162000253565b5090565b7f4e487b7100000000000000000000000000000000000000000000000000000000600052602260045260246000fd5b60006002820490506001821680620002b957607f821691505b60208210811415620002d057620002cf62000271565b5b50919050565b61408f80620002e66000396000f3fe608060405234801561001057600080fd5b50600436106101735760003560e01c80636352211e116100de578063a22cb46511610097578063d204c45e11610071578063d204c45e14610424578063d454626014610440578063e985e9c514610471578063f2fde38b146104a157610173565b8063a22cb465146103bc578063b88d4fde146103d8578063c87b56dd146103f457610173565b80636352211e1461030c57806370a082311461033c578063715018a61461036c5780638456cb59146103765780638da5cb5b1461038057806395d89b411461039e57610173565b80632f745c59116101305780632f745c591461024c5780633f4ba83a1461027c57806342842e0e1461028657806342966c68146102a25780634f6ccce7146102be5780635c975abb146102ee57610173565b806301ffc9a71461017857806306fdde03146101a8578063081812fc146101c6578063095ea7b3146101f657806318160ddd1461021257806323b872dd14610230575b600080fd5b610192600480360381019061018d9190612a06565b6104bd565b60405161019f9190612a4e565b60405180910390f35b6101b06104cf565b6040516101bd9190612b02565b60405180910390f35b6101e060048036038101906101db9190612b5a565b610561565b6040516101ed9190612bc8565b60405180910390f35b610210600480360381019061020b9190612c0f565b6105e6565b005b61021a6106fe565b6040516102279190612c5e565b60405180910390f35b61024a60048036038101906102459190612c79565b61070b565b005b61026660048036038101906102619190612c0f565b61076b565b6040516102739190612c5e565b60405180910390f35b610284610810565b005b6102a0600480360381019061029b9190612c79565b610896565b005b6102bc60048036038101906102b79190612b5a565b6108b6565b005b6102d860048036038101906102d39190612b5a565b610912565b6040516102e59190612c5e565b60405180910390f35b6102f6610983565b6040516103039190612a4e565b60405180910390f35b61032660048036038101906103219190612b5a565b61099a565b6040516103339190612bc8565b60405180910390f35b61035660048036038101906103519190612ccc565b610a4c565b6040516103639190612c5e565b60405180910390f35b610374610b04565b005b61037e610b8c565b005b610388610c12565b6040516103959190612bc8565b60405180910390f35b6103a6610c3c565b6040516103b39190612b02565b60405180910390f35b6103d660048036038101906103d19190612d25565b610cce565b005b6103f260048036038101906103ed9190612e9a565b610e4f565b005b61040e60048036038101906104099190612b5a565b610eb1565b60405161041b9190612b02565b60405180910390f35b61043e60048036038101906104399190612fbe565b610ec3565b005b61045a60048036038101906104559190612b5a565b610f7a565b60405161046892919061301a565b60405180910390f35b61048b6004803603810190610486919061304a565b611036565b6040516104989190612a4e565b60405180910390f35b6104bb60048036038101906104b69190612ccc565b6110ca565b005b60006104c8826111c2565b9050919050565b6060600080546104de906130b9565b80601f016020809104026020016040519081016040528092919081815260200182805461050a906130b9565b80156105575780601f1061052c57610100808354040283529160200191610557565b820191906000526020600020905b81548152906001019060200180831161053a57829003601f168201915b5050505050905090565b600061056c8261123c565b6105ab576040517f08c379a00000000000000000000000000000000000000000000000000000000081526004016105a29061315d565b60405180910390fd5b6004600083815260200190815260200160002060009054906101000a900473ffffffffffffffffffffffffffffffffffffffff169050919050565b60006105f18261099a565b90508073ffffffffffffffffffffffffffffffffffffffff168373ffffffffffffffffffffffffffffffffffffffff161415610662576040517f08c379a0000000000000000000000000000000000000000000000000000000008152600401610659906131ef565b60405180910390fd5b8073ffffffffffffffffffffffffffffffffffffffff166106816112a8565b73ffffffffffffffffffffffffffffffffffffffff1614806106b057506106af816106aa6112a8565b611036565b5b6106ef576040517f08c379a00000000000000000000000000000000000000000000000000000000081526004016106e690613281565b60405180910390fd5b6106f983836112b0565b505050565b6000600880549050905090565b61071c6107166112a8565b82611369565b61075b576040517f08c379a000000000000000000000000000000000000000000000000000000000815260040161075290613313565b60405180910390fd5b610766838383611447565b505050565b600061077683610a4c565b82106107b7576040517f08c379a00000000000000000000000000000000000000000000000000000000081526004016107ae906133a5565b60405180910390fd5b600660008473ffffffffffffffffffffffffffffffffffffffff1673ffffffffffffffffffffffffffffffffffffffff168152602001908152602001600020600083815260200190815260200160002054905092915050565b6108186112a8565b73ffffffffffffffffffffffffffffffffffffffff16610836610c12565b73ffffffffffffffffffffffffffffffffffffffff161461088c576040517f08c379a000000000000000000000000000000000000000000000000000000000815260040161088390613411565b60405180910390fd5b6108946116a3565b565b6108b183838360405180602001604052806000815250610e4f565b505050565b6108c76108c16112a8565b82611369565b610906576040517f08c379a00000000000000000000000000000000000000000000000000000000081526004016108fd906134a3565b60405180910390fd5b61090f81611745565b50565b600061091c6106fe565b821061095d576040517f08c379a000000000000000000000000000000000000000000000000000000000815260040161095490613535565b60405180910390fd5b6008828154811061097157610970613555565b5b90600052602060002001549050919050565b6000600b60009054906101000a900460ff16905090565b6000806002600084815260200190815260200160002060009054906101000a900473ffffffffffffffffffffffffffffffffffffffff169050600073ffffffffffffffffffffffffffffffffffffffff168173ffffffffffffffffffffffffffffffffffffffff161415610a43576040517f08c379a0000000000000000000000000000000000000000000000000000000008152600401610a3a906135f6565b60405180910390fd5b80915050919050565b60008073ffffffffffffffffffffffffffffffffffffffff168273ffffffffffffffffffffffffffffffffffffffff161415610abd576040517f08c379a0000000000000000000000000000000000000000000000000000000008152600401610ab490613688565b60405180910390fd5b600360008373ffffffffffffffffffffffffffffffffffffffff1673ffffffffffffffffffffffffffffffffffffffff168152602001908152602001600020549050919050565b610b0c6112a8565b73ffffffffffffffffffffffffffffffffffffffff16610b2a610c12565b73ffffffffffffffffffffffffffffffffffffffff1614610b80576040517f08c379a0000000000000000000000000000000000000000000000000000000008152600401610b7790613411565b60405180910390fd5b610b8a6000611751565b565b610b946112a8565b73ffffffffffffffffffffffffffffffffffffffff16610bb2610c12565b73ffffffffffffffffffffffffffffffffffffffff1614610c08576040517f08c379a0000000000000000000000000000000000000000000000000000000008152600401610bff90613411565b60405180910390fd5b610c10611817565b565b6000600b60019054906101000a900473ffffffffffffffffffffffffffffffffffffffff16905090565b606060018054610c4b906130b9565b80601f0160208091040260200160405190810160405280929190818152602001828054610c77906130b9565b8015610cc45780601f10610c9957610100808354040283529160200191610cc4565b820191906000526020600020905b815481529060010190602001808311610ca757829003601f168201915b5050505050905090565b610cd66112a8565b73ffffffffffffffffffffffffffffffffffffffff168273ffffffffffffffffffffffffffffffffffffffff161415610d44576040517f08c379a0000000000000000000000000000000000000000000000000000000008152600401610d3b906136f4565b60405180910390fd5b8060056000610d516112a8565b73ffffffffffffffffffffffffffffffffffffffff1673ffffffffffffffffffffffffffffffffffffffff16815260200190815260200160002060008473ffffffffffffffffffffffffffffffffffffffff1673ffffffffffffffffffffffffffffffffffffffff16815260200190815260200160002060006101000a81548160ff0219169083151502179055508173ffffffffffffffffffffffffffffffffffffffff16610dfe6112a8565b73ffffffffffffffffffffffffffffffffffffffff167f17307eab39ab6107e8899845ad3d59bd9653f200f220920489ca2b5937696c3183604051610e439190612a4e565b60405180910390a35050565b610e60610e5a6112a8565b83611369565b610e9f576040517f08c379a0000000000000000000000000000000000000000000000000000000008152600401610e9690613313565b60405180910390fd5b610eab848484846118ba565b50505050565b6060610ebc82611916565b9050919050565b610ecb6112a8565b73ffffffffffffffffffffffffffffffffffffffff16610ee9610c12565b73ffffffffffffffffffffffffffffffffffffffff1614610f3f576040517f08c379a0000000000000000000000000000000000000000000000000000000008152600401610f3690613411565b60405180910390fd5b6000610f4b600c611a68565b9050610f57600c611a76565b610f618382611a8c565b610f6b8183611aaa565b610f758183611b1e565b505050565b600d8181548110610f8a57600080fd5b9060005260206000209060020201600091509050806000015490806001018054610fb3906130b9565b80601f0160208091040260200160405190810160405280929190818152602001828054610fdf906130b9565b801561102c5780601f106110015761010080835404028352916020019161102c565b820191906000526020600020905b81548152906001019060200180831161100f57829003601f168201915b5050505050905082565b6000600560008473ffffffffffffffffffffffffffffffffffffffff1673ffffffffffffffffffffffffffffffffffffffff16815260200190815260200160002060008373ffffffffffffffffffffffffffffffffffffffff1673ffffffffffffffffffffffffffffffffffffffff16815260200190815260200160002060009054906101000a900460ff16905092915050565b6110d26112a8565b73ffffffffffffffffffffffffffffffffffffffff166110f0610c12565b73ffffffffffffffffffffffffffffffffffffffff1614611146576040517f08c379a000000000000000000000000000000000000000000000000000000000815260040161113d90613411565b60405180910390fd5b600073ffffffffffffffffffffffffffffffffffffffff168173ffffffffffffffffffffffffffffffffffffffff1614156111b6576040517f08c379a00000000000000000000000000000000000000000000000000000000081526004016111ad90613786565b60405180910390fd5b6111bf81611751565b50565b60007f780e9d63000000000000000000000000000000000000000000000000000000007bffffffffffffffffffffffffffffffffffffffffffffffffffffffff1916827bffffffffffffffffffffffffffffffffffffffffffffffffffffffff19161480611235575061123482611b93565b5b9050919050565b60008073ffffffffffffffffffffffffffffffffffffffff166002600084815260200190815260200160002060009054906101000a900473ffffffffffffffffffffffffffffffffffffffff1673ffffffffffffffffffffffffffffffffffffffff1614159050919050565b600033905090565b816004600083815260200190815260200160002060006101000a81548173ffffffffffffffffffffffffffffffffffffffff021916908373ffffffffffffffffffffffffffffffffffffffff160217905550808273ffffffffffffffffffffffffffffffffffffffff166113238361099a565b73ffffffffffffffffffffffffffffffffffffffff167f8c5be1e5ebec7d5bd14f71427d1e84f3dd0314c0f7b2291e5b200ac8c7c3b92560405160405180910390a45050565b60006113748261123c565b6113b3576040517f08c379a00000000000000000000000000000000000000000000000000000000081526004016113aa90613818565b60405180910390fd5b60006113be8361099a565b90508073ffffffffffffffffffffffffffffffffffffffff168473ffffffffffffffffffffffffffffffffffffffff16148061142d57508373ffffffffffffffffffffffffffffffffffffffff1661141584610561565b73ffffffffffffffffffffffffffffffffffffffff16145b8061143e575061143d8185611036565b5b91505092915050565b8273ffffffffffffffffffffffffffffffffffffffff166114678261099a565b73ffffffffffffffffffffffffffffffffffffffff16146114bd576040517f08c379a00000000000000000000000000000000000000000000000000000000081526004016114b4906138aa565b60405180910390fd5b600073ffffffffffffffffffffffffffffffffffffffff168273ffffffffffffffffffffffffffffffffffffffff16141561152d576040517f08c379a00000000000000000000000000000000000000000000000000000000081526004016115249061393c565b60405180910390fd5b611538838383611c75565b6115436000826112b0565b6001600360008573ffffffffffffffffffffffffffffffffffffffff1673ffffffffffffffffffffffffffffffffffffffff1681526020019081526020016000206000828254611593919061398b565b925050819055506001600360008473ffffffffffffffffffffffffffffffffffffffff1673ffffffffffffffffffffffffffffffffffffffff16815260200190815260200160002060008282546115ea91906139bf565b92505081905550816002600083815260200190815260200160002060006101000a81548173ffffffffffffffffffffffffffffffffffffffff021916908373ffffffffffffffffffffffffffffffffffffffff160217905550808273ffffffffffffffffffffffffffffffffffffffff168473ffffffffffffffffffffffffffffffffffffffff167fddf252ad1be2c89b69c2b068fc378daa952ba7f163c4a11628f55a4df523b3ef60405160405180910390a4505050565b6116ab610983565b6116ea576040517f08c379a00000000000000000000000000000000000000000000000000000000081526004016116e190613a61565b60405180910390fd5b6000600b60006101000a81548160ff0219169083151502179055507f5db9ee0a495bf2e6ff9c91a7834c1ba4fdd244a5e8aa4e537bd38aeae4b073aa61172e6112a8565b60405161173b9190612bc8565b60405180910390a1565b61174e81611ccd565b50565b6000600b60019054906101000a900473ffffffffffffffffffffffffffffffffffffffff16905081600b60016101000a81548173ffffffffffffffffffffffffffffffffffffffff021916908373ffffffffffffffffffffffffffffffffffffffff1602179055508173ffffffffffffffffffffffffffffffffffffffff168173ffffffffffffffffffffffffffffffffffffffff167f8be0079c531659141344cd1fd0a4f28419497f9722a3daafe3b4186f6b6457e060405160405180910390a35050565b61181f610983565b1561185f576040517f08c379a000000000000000000000000000000000000000000000000000000000815260040161185690613acd565b60405180910390fd5b6001600b60006101000a81548160ff0219169083151502179055507f62e78cea01bee320cd4e420270b5ea74000d11b0c9f74754ebdbfc544b05a2586118a36112a8565b6040516118b09190612bc8565b60405180910390a1565b6118c5848484611447565b6118d184848484611d20565b611910576040517f08c379a000000000000000000000000000000000000000000000000000000000815260040161190790613b5f565b60405180910390fd5b50505050565b60606119218261123c565b611960576040517f08c379a000000000000000000000000000000000000000000000000000000000815260040161195790613bf1565b60405180910390fd5b6000600a60008481526020019081526020016000208054611980906130b9565b80601f01602080910402602001604051908101604052809291908181526020018280546119ac906130b9565b80156119f95780601f106119ce576101008083540402835291602001916119f9565b820191906000526020600020905b8154815290600101906020018083116119dc57829003601f168201915b505050505090506000611a0a611ea8565b9050600081511415611a20578192505050611a63565b600082511115611a55578082604051602001611a3d929190613c4d565b60405160208183030381529060405292505050611a63565b611a5e84611ebf565b925050505b919050565b600081600001549050919050565b6001816000016000828254019250508190555050565b611aa6828260405180602001604052806000815250611f66565b5050565b611ab38261123c565b611af2576040517f08c379a0000000000000000000000000000000000000000000000000000000008152600401611ae990613ce3565b60405180910390fd5b80600a60008481526020019081526020016000209080519060200190611b1992919061289d565b505050565b611b26612923565b82816000018181525050818160200181905250600d819080600181540180825580915050600190039060005260206000209060020201600090919091909150600082015181600001556020820151816001019080519060200190611b8b92919061289d565b505050505050565b60007f80ac58cd000000000000000000000000000000000000000000000000000000007bffffffffffffffffffffffffffffffffffffffffffffffffffffffff1916827bffffffffffffffffffffffffffffffffffffffffffffffffffffffff19161480611c5e57507f5b5e139f000000000000000000000000000000000000000000000000000000007bffffffffffffffffffffffffffffffffffffffffffffffffffffffff1916827bffffffffffffffffffffffffffffffffffffffffffffffffffffffff1916145b80611c6e5750611c6d82611fc1565b5b9050919050565b611c7d610983565b15611cbd576040517f08c379a0000000000000000000000000000000000000000000000000000000008152600401611cb490613acd565b60405180910390fd5b611cc883838361202b565b505050565b611cd68161213f565b6000600a60008381526020019081526020016000208054611cf6906130b9565b905014611d1d57600a60008281526020019081526020016000206000611d1c919061293d565b5b50565b6000611d418473ffffffffffffffffffffffffffffffffffffffff16612250565b15611e9b578373ffffffffffffffffffffffffffffffffffffffff1663150b7a02611d6a6112a8565b8786866040518563ffffffff1660e01b8152600401611d8c9493929190613d58565b6020604051808303816000875af1925050508015611dc857506040513d601f19601f82011682018060405250810190611dc59190613db9565b60015b611e4b573d8060008114611df8576040519150601f19603f3d011682016040523d82523d6000602084013e611dfd565b606091505b50600081511415611e43576040517f08c379a0000000000000000000000000000000000000000000000000000000008152600401611e3a90613b5f565b60405180910390fd5b805181602001fd5b63150b7a0260e01b7bffffffffffffffffffffffffffffffffffffffffffffffffffffffff1916817bffffffffffffffffffffffffffffffffffffffffffffffffffffffff191614915050611ea0565b600190505b949350505050565b606060405180602001604052806000815250905090565b6060611eca8261123c565b611f09576040517f08c379a0000000000000000000000000000000000000000000000000000000008152600401611f0090613e58565b60405180910390fd5b6000611f13611ea8565b90506000815111611f335760405180602001604052806000815250611f5e565b80611f3d84612263565b604051602001611f4e929190613c4d565b6040516020818303038152906040525b915050919050565b611f7083836123c4565b611f7d6000848484611d20565b611fbc576040517f08c379a0000000000000000000000000000000000000000000000000000000008152600401611fb390613b5f565b60405180910390fd5b505050565b60007f01ffc9a7000000000000000000000000000000000000000000000000000000007bffffffffffffffffffffffffffffffffffffffffffffffffffffffff1916827bffffffffffffffffffffffffffffffffffffffffffffffffffffffff1916149050919050565b612036838383612592565b600073ffffffffffffffffffffffffffffffffffffffff168373ffffffffffffffffffffffffffffffffffffffff1614156120795761207481612597565b6120b8565b8173ffffffffffffffffffffffffffffffffffffffff168373ffffffffffffffffffffffffffffffffffffffff16146120b7576120b683826125e0565b5b5b600073ffffffffffffffffffffffffffffffffffffffff168273ffffffffffffffffffffffffffffffffffffffff1614156120fb576120f68161274d565b61213a565b8273ffffffffffffffffffffffffffffffffffffffff168273ffffffffffffffffffffffffffffffffffffffff161461213957612138828261281e565b5b5b505050565b600061214a8261099a565b905061215881600084611c75565b6121636000836112b0565b6001600360008373ffffffffffffffffffffffffffffffffffffffff1673ffffffffffffffffffffffffffffffffffffffff16815260200190815260200160002060008282546121b3919061398b565b925050819055506002600083815260200190815260200160002060006101000a81549073ffffffffffffffffffffffffffffffffffffffff021916905581600073ffffffffffffffffffffffffffffffffffffffff168273ffffffffffffffffffffffffffffffffffffffff167fddf252ad1be2c89b69c2b068fc378daa952ba7f163c4a11628f55a4df523b3ef60405160405180910390a45050565b600080823b905060008111915050919050565b606060008214156122ab576040518060400160405280600181526020017f300000000000000000000000000000000000000000000000000000000000000081525090506123bf565b600082905060005b600082146122dd5780806122c690613e78565b915050600a826122d69190613ef0565b91506122b3565b60008167ffffffffffffffff8111156122f9576122f8612d6f565b5b6040519080825280601f01601f19166020018201604052801561232b5781602001600182028036833780820191505090505b5090505b600085146123b857600182612344919061398b565b9150600a856123539190613f21565b603061235f91906139bf565b60f81b81838151811061237557612374613555565b5b60200101907effffffffffffffffffffffffffffffffffffffffffffffffffffffffffffff1916908160001a905350600a856123b19190613ef0565b945061232f565b8093505050505b919050565b600073ffffffffffffffffffffffffffffffffffffffff168273ffffffffffffffffffffffffffffffffffffffff161415612434576040517f08c379a000000000000000000000000000000000000000000000000000000000815260040161242b90613f9e565b60405180910390fd5b61243d8161123c565b1561247d576040517f08c379a00000000000000000000000000000000000000000000000000000000081526004016124749061400a565b60405180910390fd5b61248960008383611c75565b6001600360008473ffffffffffffffffffffffffffffffffffffffff1673ffffffffffffffffffffffffffffffffffffffff16815260200190815260200160002060008282546124d991906139bf565b92505081905550816002600083815260200190815260200160002060006101000a81548173ffffffffffffffffffffffffffffffffffffffff021916908373ffffffffffffffffffffffffffffffffffffffff160217905550808273ffffffffffffffffffffffffffffffffffffffff16600073ffffffffffffffffffffffffffffffffffffffff167fddf252ad1be2c89b69c2b068fc378daa952ba7f163c4a11628f55a4df523b3ef60405160405180910390a45050565b505050565b6008805490506009600083815260200190815260200160002081905550600881908060018154018082558091505060019003906000526020600020016000909190919091505550565b600060016125ed84610a4c565b6125f7919061398b565b90506000600760008481526020019081526020016000205490508181146126dc576000600660008673ffffffffffffffffffffffffffffffffffffffff1673ffffffffffffffffffffffffffffffffffffffff168152602001908152602001600020600084815260200190815260200160002054905080600660008773ffffffffffffffffffffffffffffffffffffffff1673ffffffffffffffffffffffffffffffffffffffff168152602001908152602001600020600084815260200190815260200160002081905550816007600083815260200190815260200160002081905550505b6007600084815260200190815260200160002060009055600660008573ffffffffffffffffffffffffffffffffffffffff1673ffffffffffffffffffffffffffffffffffffffff16815260200190815260200160002060008381526020019081526020016000206000905550505050565b60006001600880549050612761919061398b565b905060006009600084815260200190815260200160002054905060006008838154811061279157612790613555565b5b9060005260206000200154905080600883815481106127b3576127b2613555565b5b9060005260206000200181905550816009600083815260200190815260200160002081905550600960008581526020019081526020016000206000905560088054806128025761280161402a565b5b6001900381819060005260206000200160009055905550505050565b600061282983610a4c565b905081600660008573ffffffffffffffffffffffffffffffffffffffff1673ffffffffffffffffffffffffffffffffffffffff168152602001908152602001600020600083815260200190815260200160002081905550806007600084815260200190815260200160002081905550505050565b8280546128a9906130b9565b90600052602060002090601f0160209004810192826128cb5760008555612912565b82601f106128e457805160ff1916838001178555612912565b82800160010185558215612912579182015b828111156129115782518255916020019190600101906128f6565b5b50905061291f919061297d565b5090565b604051806040016040528060008152602001606081525090565b508054612949906130b9565b6000825580601f1061295b575061297a565b601f016020900490600052602060002090810190612979919061297d565b5b50565b5b8082111561299657600081600090555060010161297e565b5090565b6000604051905090565b600080fd5b600080fd5b60007fffffffff0000000000000000000000000000000000000000000000000000000082169050919050565b6129e3816129ae565b81146129ee57600080fd5b50565b600081359050612a00816129da565b92915050565b600060208284031215612a1c57612a1b6129a4565b5b6000612a2a848285016129f1565b91505092915050565b60008115159050919050565b612a4881612a33565b82525050565b6000602082019050612a636000830184612a3f565b92915050565b600081519050919050565b600082825260208201905092915050565b60005b83811015612aa3578082015181840152602081019050612a88565b83811115612ab2576000848401525b50505050565b6000601f19601f8301169050919050565b6000612ad482612a69565b612ade8185612a74565b9350612aee818560208601612a85565b612af781612ab8565b840191505092915050565b60006020820190508181036000830152612b1c8184612ac9565b905092915050565b6000819050919050565b612b3781612b24565b8114612b4257600080fd5b50565b600081359050612b5481612b2e565b92915050565b600060208284031215612b7057612b6f6129a4565b5b6000612b7e84828501612b45565b91505092915050565b600073ffffffffffffffffffffffffffffffffffffffff82169050919050565b6000612bb282612b87565b9050919050565b612bc281612ba7565b82525050565b6000602082019050612bdd6000830184612bb9565b92915050565b612bec81612ba7565b8114612bf757600080fd5b50565b600081359050612c0981612be3565b92915050565b60008060408385031215612c2657612c256129a4565b5b6000612c3485828601612bfa565b9250506020612c4585828601612b45565b9150509250929050565b612c5881612b24565b82525050565b6000602082019050612c736000830184612c4f565b92915050565b600080600060608486031215612c9257612c916129a4565b5b6000612ca086828701612bfa565b9350506020612cb186828701612bfa565b9250506040612cc286828701612b45565b9150509250925092565b600060208284031215612ce257612ce16129a4565b5b6000612cf084828501612bfa565b91505092915050565b612d0281612a33565b8114612d0d57600080fd5b50565b600081359050612d1f81612cf9565b92915050565b60008060408385031215612d3c57612d3b6129a4565b5b6000612d4a85828601612bfa565b9250506020612d5b85828601612d10565b9150509250929050565b600080fd5b600080fd5b7f4e487b7100000000000000000000000000000000000000000000000000000000600052604160045260246000fd5b612da782612ab8565b810181811067ffffffffffffffff82111715612dc657612dc5612d6f565b5b80604052505050565b6000612dd961299a565b9050612de58282612d9e565b919050565b600067ffffffffffffffff821115612e0557612e04612d6f565b5b612e0e82612ab8565b9050602081019050919050565b82818337600083830152505050565b6000612e3d612e3884612dea565b612dcf565b905082815260208101848484011115612e5957612e58612d6a565b5b612e64848285612e1b565b509392505050565b600082601f830112612e8157612e80612d65565b5b8135612e91848260208601612e2a565b91505092915050565b60008060008060808587031215612eb457612eb36129a4565b5b6000612ec287828801612bfa565b9450506020612ed387828801612bfa565b9350506040612ee487828801612b45565b925050606085013567ffffffffffffffff811115612f0557612f046129a9565b5b612f1187828801612e6c565b91505092959194509250565b600067ffffffffffffffff821115612f3857612f37612d6f565b5b612f4182612ab8565b9050602081019050919050565b6000612f61612f5c84612f1d565b612dcf565b905082815260208101848484011115612f7d57612f7c612d6a565b5b612f88848285612e1b565b509392505050565b600082601f830112612fa557612fa4612d65565b5b8135612fb5848260208601612f4e565b91505092915050565b60008060408385031215612fd557612fd46129a4565b5b6000612fe385828601612bfa565b925050602083013567ffffffffffffffff811115613004576130036129a9565b5b61301085828601612f90565b9150509250929050565b600060408201905061302f6000830185612c4f565b81810360208301526130418184612ac9565b90509392505050565b60008060408385031215613061576130606129a4565b5b600061306f85828601612bfa565b925050602061308085828601612bfa565b9150509250929050565b7f4e487b7100000000000000000000000000000000000000000000000000000000600052602260045260246000fd5b600060028204905060018216806130d157607f821691505b602082108114156130e5576130e461308a565b5b50919050565b7f4552433732313a20617070726f76656420717565727920666f72206e6f6e657860008201527f697374656e7420746f6b656e0000000000000000000000000000000000000000602082015250565b6000613147602c83612a74565b9150613152826130eb565b604082019050919050565b600060208201905081810360008301526131768161313a565b9050919050565b7f4552433732313a20617070726f76616c20746f2063757272656e74206f776e6560008201527f7200000000000000000000000000000000000000000000000000000000000000602082015250565b60006131d9602183612a74565b91506131e48261317d565b604082019050919050565b60006020820190508181036000830152613208816131cc565b9050919050565b7f4552433732313a20617070726f76652063616c6c6572206973206e6f74206f7760008201527f6e6572206e6f7220617070726f76656420666f7220616c6c0000000000000000602082015250565b600061326b603883612a74565b91506132768261320f565b604082019050919050565b6000602082019050818103600083015261329a8161325e565b9050919050565b7f4552433732313a207472616e736665722063616c6c6572206973206e6f74206f60008201527f776e6572206e6f7220617070726f766564000000000000000000000000000000602082015250565b60006132fd603183612a74565b9150613308826132a1565b604082019050919050565b6000602082019050818103600083015261332c816132f0565b9050919050565b7f455243373231456e756d657261626c653a206f776e657220696e646578206f7560008201527f74206f6620626f756e6473000000000000000000000000000000000000000000602082015250565b600061338f602b83612a74565b915061339a82613333565b604082019050919050565b600060208201905081810360008301526133be81613382565b9050919050565b7f4f776e61626c653a2063616c6c6572206973206e6f7420746865206f776e6572600082015250565b60006133fb602083612a74565b9150613406826133c5565b602082019050919050565b6000602082019050818103600083015261342a816133ee565b9050919050565b7f4552433732314275726e61626c653a2063616c6c6572206973206e6f74206f7760008201527f6e6572206e6f7220617070726f76656400000000000000000000000000000000602082015250565b600061348d603083612a74565b915061349882613431565b604082019050919050565b600060208201905081810360008301526134bc81613480565b9050919050565b7f455243373231456e756d657261626c653a20676c6f62616c20696e646578206f60008201527f7574206f6620626f756e64730000000000000000000000000000000000000000602082015250565b600061351f602c83612a74565b915061352a826134c3565b604082019050919050565b6000602082019050818103600083015261354e81613512565b9050919050565b7f4e487b7100000000000000000000000000000000000000000000000000000000600052603260045260246000fd5b7f4552433732313a206f776e657220717565727920666f72206e6f6e657869737460008201527f656e7420746f6b656e0000000000000000000000000000000000000000000000602082015250565b60006135e0602983612a74565b91506135eb82613584565b604082019050919050565b6000602082019050818103600083015261360f816135d3565b9050919050565b7f4552433732313a2062616c616e636520717565727920666f7220746865207a6560008201527f726f206164647265737300000000000000000000000000000000000000000000602082015250565b6000613672602a83612a74565b915061367d82613616565b604082019050919050565b600060208201905081810360008301526136a181613665565b9050919050565b7f4552433732313a20617070726f766520746f2063616c6c657200000000000000600082015250565b60006136de601983612a74565b91506136e9826136a8565b602082019050919050565b6000602082019050818103600083015261370d816136d1565b9050919050565b7f4f776e61626c653a206e6577206f776e657220697320746865207a65726f206160008201527f6464726573730000000000000000000000000000000000000000000000000000602082015250565b6000613770602683612a74565b915061377b82613714565b604082019050919050565b6000602082019050818103600083015261379f81613763565b9050919050565b7f4552433732313a206f70657261746f7220717565727920666f72206e6f6e657860008201527f697374656e7420746f6b656e0000000000000000000000000000000000000000602082015250565b6000613802602c83612a74565b915061380d826137a6565b604082019050919050565b60006020820190508181036000830152613831816137f5565b9050919050565b7f4552433732313a207472616e73666572206f6620746f6b656e2074686174206960008201527f73206e6f74206f776e0000000000000000000000000000000000000000000000602082015250565b6000613894602983612a74565b915061389f82613838565b604082019050919050565b600060208201905081810360008301526138c381613887565b9050919050565b7f4552433732313a207472616e7366657220746f20746865207a65726f2061646460008201527f7265737300000000000000000000000000000000000000000000000000000000602082015250565b6000613926602483612a74565b9150613931826138ca565b604082019050919050565b6000602082019050818103600083015261395581613919565b9050919050565b7f4e487b7100000000000000000000000000000000000000000000000000000000600052601160045260246000fd5b600061399682612b24565b91506139a183612b24565b9250828210156139b4576139b361395c565b5b828203905092915050565b60006139ca82612b24565b91506139d583612b24565b9250827fffffffffffffffffffffffffffffffffffffffffffffffffffffffffffffffff03821115613a0a57613a0961395c565b5b828201905092915050565b7f5061757361626c653a206e6f7420706175736564000000000000000000000000600082015250565b6000613a4b601483612a74565b9150613a5682613a15565b602082019050919050565b60006020820190508181036000830152613a7a81613a3e565b9050919050565b7f5061757361626c653a2070617573656400000000000000000000000000000000600082015250565b6000613ab7601083612a74565b9150613ac282613a81565b602082019050919050565b60006020820190508181036000830152613ae681613aaa565b9050919050565b7f4552433732313a207472616e7366657220746f206e6f6e20455243373231526560008201527f63656976657220696d706c656d656e7465720000000000000000000000000000602082015250565b6000613b49603283612a74565b9150613b5482613aed565b604082019050919050565b60006020820190508181036000830152613b7881613b3c565b9050919050565b7f45524337323155524953746f726167653a2055524920717565727920666f722060008201527f6e6f6e6578697374656e7420746f6b656e000000000000000000000000000000602082015250565b6000613bdb603183612a74565b9150613be682613b7f565b604082019050919050565b60006020820190508181036000830152613c0a81613bce565b9050919050565b600081905092915050565b6000613c2782612a69565b613c318185613c11565b9350613c41818560208601612a85565b80840191505092915050565b6000613c598285613c1c565b9150613c658284613c1c565b91508190509392505050565b7f45524337323155524953746f726167653a2055524920736574206f66206e6f6e60008201527f6578697374656e7420746f6b656e000000000000000000000000000000000000602082015250565b6000613ccd602e83612a74565b9150613cd882613c71565b604082019050919050565b60006020820190508181036000830152613cfc81613cc0565b9050919050565b600081519050919050565b600082825260208201905092915050565b6000613d2a82613d03565b613d348185613d0e565b9350613d44818560208601612a85565b613d4d81612ab8565b840191505092915050565b6000608082019050613d6d6000830187612bb9565b613d7a6020830186612bb9565b613d876040830185612c4f565b8181036060830152613d998184613d1f565b905095945050505050565b600081519050613db3816129da565b92915050565b600060208284031215613dcf57613dce6129a4565b5b6000613ddd84828501613da4565b91505092915050565b7f4552433732314d657461646174613a2055524920717565727920666f72206e6f60008201527f6e6578697374656e7420746f6b656e0000000000000000000000000000000000602082015250565b6000613e42602f83612a74565b9150613e4d82613de6565b604082019050919050565b60006020820190508181036000830152613e7181613e35565b9050919050565b6000613e8382612b24565b91507fffffffffffffffffffffffffffffffffffffffffffffffffffffffffffffffff821415613eb657613eb561395c565b5b600182019050919050565b7f4e487b7100000000000000000000000000000000000000000000000000000000600052601260045260246000fd5b6000613efb82612b24565b9150613f0683612b24565b925082613f1657613f15613ec1565b5b828204905092915050565b6000613f2c82612b24565b9150613f3783612b24565b925082613f4757613f46613ec1565b5b828206905092915050565b7f4552433732313a206d696e7420746f20746865207a65726f2061646472657373600082015250565b6000613f88602083612a74565b9150613f9382613f52565b602082019050919050565b60006020820190508181036000830152613fb781613f7b565b9050919050565b7f4552433732313a20746f6b656e20616c7265616479206d696e74656400000000600082015250565b6000613ff4601c83612a74565b9150613fff82613fbe565b602082019050919050565b6000602082019050818103600083015261402381613fe7565b9050919050565b7f4e487b7100000000000000000000000000000000000000000000000000000000600052603160045260246000fdfea264697066735822122015b3f469bb11639ccf1dc69d99f4cbb8db270250a1c752f7c02010d570ac603e64736f6c634300080a0033",
  "immutableReferences": {},
  "source": "// SPDX-License-Identifier: MIT\npragma solidity >=0.4.21 <0.9.0;\n\nimport \"@openzeppelin/contracts/token/ERC721/ERC721.sol\";\nimport \"@openzeppelin/contracts/token/ERC721/extensions/ERC721Enumerable.sol\";\nimport \"@openzeppelin/contracts/token/ERC721/extensions/ERC721URIStorage.sol\";\nimport \"@openzeppelin/contracts/security/Pausable.sol\";\nimport \"@openzeppelin/contracts/access/Ownable.sol\";\nimport \"@openzeppelin/contracts/token/ERC721/extensions/ERC721Burnable.sol\";\nimport \"@openzeppelin/contracts/utils/Counters.sol\";\n\ncontract SkyScrapperNFT is ERC721, ERC721Enumerable, ERC721URIStorage, Pausable, Ownable, ERC721Burnable {\n    using Counters for Counters.Counter;\n\n    Counters.Counter private _tokenIdCounter;\n    \n    struct NFTMeta {\n        uint tokenId;\n        string uri;\n    }\n\n    NFTMeta[] public nftMetaList;\n\n    constructor() ERC721(\"SkyScrapperNFTPassCollective\", \"SSN\") {}\n\n    function pause() public onlyOwner {\n        _pause();\n    }\n\n    function unpause() public onlyOwner {\n        _unpause();\n    }\n\n    function updateTokenMetaList(uint tokenId, string memory uri) private {\n      NFTMeta memory nftMeta;\n      nftMeta.tokenId = tokenId;\n      nftMeta.uri = uri;\n      nftMetaList.push(nftMeta);\n    }\n\n    function safeMint(address to, string memory uri) public onlyOwner {\n        uint256 tokenId = _tokenIdCounter.current();\n        _tokenIdCounter.increment();\n        _safeMint(to, tokenId);\n        _setTokenURI(tokenId, uri);\n        updateTokenMetaList(tokenId, uri);\n    }\n\n    function _beforeTokenTransfer(address from, address to, uint256 tokenId)\n        internal\n        whenNotPaused\n        override(ERC721, ERC721Enumerable)\n    {\n        super._beforeTokenTransfer(from, to, tokenId);\n    }\n\n    // The following functions are overrides required by Solidity.\n\n    function _burn(uint256 tokenId) internal override(ERC721, ERC721URIStorage) {\n        super._burn(tokenId);\n    }\n\n    function tokenURI(uint256 tokenId)\n        public\n        view\n        override(ERC721, ERC721URIStorage)\n        returns (string memory)\n    {\n        return super.tokenURI(tokenId);\n    }\n\n    function supportsInterface(bytes4 interfaceId)\n        public\n        view\n        override(ERC721, ERC721Enumerable)\n        returns (bool)\n    {\n        return super.supportsInterface(interfaceId);\n    }\n}\n",
  "sourcePath": "/home/vikas/SOLIDITY-101/contracts/SkyScrapperNFT.sol",
  "compiler": {
    "name": "solc",
    "version": "0.8.10+commit.fc410830.Emscripten.clang"
  },
  "schemaVersion": "3.4.3",
  "updatedAt": "2021-11-26T02:31:21.298Z",
  "networkType": "ethereum",
  "devdoc": {
    "kind": "dev",
    "methods": {
      "approve(address,uint256)": {
        "details": "See {IERC721-approve}."
      },
      "balanceOf(address)": {
        "details": "See {IERC721-balanceOf}."
      },
      "burn(uint256)": {
        "details": "Burns `tokenId`. See {ERC721-_burn}. Requirements: - The caller must own `tokenId` or be an approved operator."
      },
      "getApproved(uint256)": {
        "details": "See {IERC721-getApproved}."
      },
      "isApprovedForAll(address,address)": {
        "details": "See {IERC721-isApprovedForAll}."
      },
      "name()": {
        "details": "See {IERC721Metadata-name}."
      },
      "owner()": {
        "details": "Returns the address of the current owner."
      },
      "ownerOf(uint256)": {
        "details": "See {IERC721-ownerOf}."
      },
      "paused()": {
        "details": "Returns true if the contract is paused, and false otherwise."
      },
      "renounceOwnership()": {
        "details": "Leaves the contract without owner. It will not be possible to call `onlyOwner` functions anymore. Can only be called by the current owner. NOTE: Renouncing ownership will leave the contract without an owner, thereby removing any functionality that is only available to the owner."
      },
      "safeTransferFrom(address,address,uint256)": {
        "details": "See {IERC721-safeTransferFrom}."
      },
      "safeTransferFrom(address,address,uint256,bytes)": {
        "details": "See {IERC721-safeTransferFrom}."
      },
      "setApprovalForAll(address,bool)": {
        "details": "See {IERC721-setApprovalForAll}."
      },
      "symbol()": {
        "details": "See {IERC721Metadata-symbol}."
      },
      "tokenByIndex(uint256)": {
        "details": "See {IERC721Enumerable-tokenByIndex}."
      },
      "tokenOfOwnerByIndex(address,uint256)": {
        "details": "See {IERC721Enumerable-tokenOfOwnerByIndex}."
      },
      "totalSupply()": {
        "details": "See {IERC721Enumerable-totalSupply}."
      },
      "transferFrom(address,address,uint256)": {
        "details": "See {IERC721-transferFrom}."
      },
      "transferOwnership(address)": {
        "details": "Transfers ownership of the contract to a new account (`newOwner`). Can only be called by the current owner."
      }
    },
    "version": 1
  },
  "userdoc": {
    "kind": "user",
    "methods": {},
    "version": 1
  }
}